{
  "_format": "hh-sol-artifact-1",
  "contractName": "ZKMockProof",
  "sourceName": "contracts/ZKMockProof.sol",
  "abi": [
    {
      "inputs": [],
      "stateMutability": "nonpayable",
      "type": "constructor"
    },
    {
      "inputs": [
        {
          "internalType": "address",
          "name": "owner",
          "type": "address"
        }
      ],
      "name": "OwnableInvalidOwner",
      "type": "error"
    },
    {
      "inputs": [
        {
          "internalType": "address",
          "name": "account",
          "type": "address"
        }
      ],
      "name": "OwnableUnauthorizedAccount",
      "type": "error"
    },
    {
      "anonymous": false,
      "inputs": [
        {
          "indexed": true,
          "internalType": "address",
          "name": "previousOwner",
          "type": "address"
        },
        {
          "indexed": true,
          "internalType": "address",
          "name": "newOwner",
          "type": "address"
        }
      ],
      "name": "OwnershipTransferred",
      "type": "event"
    },
    {
      "anonymous": false,
      "inputs": [
        {
          "indexed": true,
          "internalType": "uint256",
          "name": "proofId",
          "type": "uint256"
        },
        {
          "indexed": true,
          "internalType": "address",
          "name": "prover",
          "type": "address"
        },
        {
          "indexed": false,
          "internalType": "string",
          "name": "statement",
          "type": "string"
        },
        {
          "indexed": false,
          "internalType": "uint256",
          "name": "timestamp",
          "type": "uint256"
        }
      ],
      "name": "ProofGenerated",
      "type": "event"
    },
    {
      "anonymous": false,
      "inputs": [
        {
          "indexed": true,
          "internalType": "uint256",
          "name": "proofId",
          "type": "uint256"
        },
        {
          "indexed": true,
          "internalType": "address",
          "name": "verifier",
          "type": "address"
        },
        {
          "indexed": false,
          "internalType": "bool",
          "name": "result",
          "type": "bool"
        },
        {
          "indexed": false,
          "internalType": "uint256",
          "name": "timestamp",
          "type": "uint256"
        }
      ],
      "name": "ProofVerified",
      "type": "event"
    },
    {
      "inputs": [
        {
          "internalType": "uint256[]",
          "name": "scores",
          "type": "uint256[]"
        }
      ],
      "name": "batchGenerateProofs",
      "outputs": [
        {
          "internalType": "uint256[]",
          "name": "proofIds",
          "type": "uint256[]"
        }
      ],
      "stateMutability": "nonpayable",
      "type": "function"
    },
    {
      "inputs": [
        {
          "internalType": "uint256",
          "name": "score",
          "type": "uint256"
        }
      ],
      "name": "generateProof",
      "outputs": [
        {
          "internalType": "uint256",
          "name": "proofId",
          "type": "uint256"
        },
        {
          "internalType": "string",
          "name": "statement",
          "type": "string"
        }
      ],
      "stateMutability": "nonpayable",
      "type": "function"
    },
    {
      "inputs": [
        {
          "internalType": "uint256",
          "name": "proofId",
          "type": "uint256"
        }
      ],
      "name": "getProof",
      "outputs": [
        {
          "internalType": "address",
          "name": "prover",
          "type": "address"
        },
        {
          "internalType": "string",
          "name": "statement",
          "type": "string"
        },
        {
          "internalType": "uint256",
          "name": "timestamp",
          "type": "uint256"
        },
        {
          "internalType": "bool",
          "name": "verified",
          "type": "bool"
        }
      ],
      "stateMutability": "view",
      "type": "function"
    },
    {
      "inputs": [
        {
          "internalType": "address",
          "name": "user",
          "type": "address"
        }
      ],
      "name": "getUserProofs",
      "outputs": [
        {
          "internalType": "uint256[]",
          "name": "",
          "type": "uint256[]"
        }
      ],
      "stateMutability": "view",
      "type": "function"
    },
    {
      "inputs": [],
      "name": "owner",
      "outputs": [
        {
          "internalType": "address",
          "name": "",
          "type": "address"
        }
      ],
      "stateMutability": "view",
      "type": "function"
    },
    {
      "inputs": [
        {
          "internalType": "uint256",
          "name": "",
          "type": "uint256"
        }
      ],
      "name": "proofs",
      "outputs": [
        {
          "internalType": "address",
          "name": "prover",
          "type": "address"
        },
        {
          "internalType": "string",
          "name": "statement",
          "type": "string"
        },
        {
          "internalType": "uint256",
          "name": "timestamp",
          "type": "uint256"
        },
        {
          "internalType": "bool",
          "name": "verified",
          "type": "bool"
        }
      ],
      "stateMutability": "view",
      "type": "function"
    },
    {
      "inputs": [],
      "name": "renounceOwnership",
      "outputs": [],
      "stateMutability": "nonpayable",
      "type": "function"
    },
    {
      "inputs": [],
      "name": "totalProofs",
      "outputs": [
        {
          "internalType": "uint256",
          "name": "",
          "type": "uint256"
        }
      ],
      "stateMutability": "view",
      "type": "function"
    },
    {
      "inputs": [
        {
          "internalType": "address",
          "name": "newOwner",
          "type": "address"
        }
      ],
      "name": "transferOwnership",
      "outputs": [],
      "stateMutability": "nonpayable",
      "type": "function"
    },
    {
      "inputs": [
        {
          "internalType": "address",
          "name": "",
          "type": "address"
        },
        {
          "internalType": "uint256",
          "name": "",
          "type": "uint256"
        }
      ],
      "name": "userProofs",
      "outputs": [
        {
          "internalType": "uint256",
          "name": "",
          "type": "uint256"
        }
      ],
      "stateMutability": "view",
      "type": "function"
    },
    {
      "inputs": [
        {
          "internalType": "uint256",
          "name": "proofId",
          "type": "uint256"
        }
      ],
      "name": "verifyProof",
      "outputs": [
        {
          "internalType": "bool",
          "name": "",
          "type": "bool"
        }
      ],
      "stateMutability": "nonpayable",
      "type": "function"
    }
  ],
  "bytecode": "0x60806040523480156200001157600080fd5b5033600073ffffffffffffffffffffffffffffffffffffffff168173ffffffffffffffffffffffffffffffffffffffff1603620000885760006040517f1e4fbdf70000000000000000000000000000000000000000000000000000000081526004016200007f9190620001b1565b60405180910390fd5b6200009981620000a860201b60201c565b506001600281905550620001ce565b60008060009054906101000a900473ffffffffffffffffffffffffffffffffffffffff169050816000806101000a81548173ffffffffffffffffffffffffffffffffffffffff021916908373ffffffffffffffffffffffffffffffffffffffff1602179055508173ffffffffffffffffffffffffffffffffffffffff168173ffffffffffffffffffffffffffffffffffffffff167f8be0079c531659141344cd1fd0a4f28419497f9722a3daafe3b4186f6b6457e060405160405180910390a35050565b600073ffffffffffffffffffffffffffffffffffffffff82169050919050565b600062000199826200016c565b9050919050565b620001ab816200018c565b82525050565b6000602082019050620001c86000830184620001a0565b92915050565b611a6680620001de6000396000f3fe608060405234801561001057600080fd5b50600436106100a95760003560e01c8063715018a611610071578063715018a6146101905780638b6958ff1461019a5780638da5cb5b146101ca5780639ddaf5aa146101e8578063ede1161d1461021b578063f2fde38b1461024b576100a9565b806311149ada146100ae5780632ded3568146100e1578063373b58e6146100ff57806346bdfb801461012f578063471a4c341461015f575b600080fd5b6100c860048036038101906100c39190610fe9565b610267565b6040516100d89493929190611111565b60405180910390f35b6100e9610405565b6040516100f6919061115d565b60405180910390f35b610119600480360381019061011491906111a4565b61041b565b604051610126919061115d565b60405180910390f35b610149600480360381019061014491906111e4565b61044c565b60405161015691906112cf565b60405180910390f35b61017960048036038101906101749190610fe9565b6104e3565b6040516101879291906112f1565b60405180910390f35b6101986106e7565b005b6101b460048036038101906101af9190610fe9565b6106fb565b6040516101c19190611321565b60405180910390f35b6101d26107d4565b6040516101df919061133c565b60405180910390f35b61020260048036038101906101fd9190610fe9565b6107fd565b6040516102129493929190611111565b60405180910390f35b610235600480360381019061023091906113bc565b6108e2565b60405161024291906112cf565b60405180910390f35b610265600480360381019061026091906111e4565b610bad565b005b6000606060008060025485106102b2576040517f08c379a00000000000000000000000000000000000000000000000000000000081526004016102a99061147b565b60405180910390fd5b6000600160008781526020019081526020016000206040518060800160405290816000820160009054906101000a900473ffffffffffffffffffffffffffffffffffffffff1673ffffffffffffffffffffffffffffffffffffffff1673ffffffffffffffffffffffffffffffffffffffff168152602001600182018054610338906114ca565b80601f0160208091040260200160405190810160405280929190818152602001828054610364906114ca565b80156103b15780601f10610386576101008083540402835291602001916103b1565b820191906000526020600020905b81548152906001019060200180831161039457829003601f168201915b50505050508152602001600282015481526020016003820160009054906101000a900460ff161515151581525050905080600001518160200151826040015183606001519450945094509450509193509193565b60006001600254610416919061152a565b905090565b6003602052816000526040600020818154811061043757600080fd5b90600052602060002001600091509150505481565b6060600360008373ffffffffffffffffffffffffffffffffffffffff1673ffffffffffffffffffffffffffffffffffffffff1681526020019081526020016000208054806020026020016040519081016040528092919081815260200182805480156104d757602002820191906000526020600020905b8154815260200190600101908083116104c3575b50505050509050919050565b600060606103e883111561052c576040517f08c379a0000000000000000000000000000000000000000000000000000000008152600401610523906115d0565b60405180910390fd5b600254915060026000815480929190610544906115f0565b919050555061055283610c33565b905060405180608001604052803373ffffffffffffffffffffffffffffffffffffffff168152602001828152602001428152602001600115158152506001600084815260200190815260200160002060008201518160000160006101000a81548173ffffffffffffffffffffffffffffffffffffffff021916908373ffffffffffffffffffffffffffffffffffffffff16021790555060208201518160010190816105fd9190611813565b506040820151816002015560608201518160030160006101000a81548160ff021916908315150217905550905050600360003373ffffffffffffffffffffffffffffffffffffffff1673ffffffffffffffffffffffffffffffffffffffff1681526020019081526020016000208290806001815401808255809150506001900390600052602060002001600090919091909150553373ffffffffffffffffffffffffffffffffffffffff16827f48c322e8076f59f55f9906ba95ff1a3f9aa562857ae4df3e11ed2b355af6ef8f83426040516106da9291906118e5565b60405180910390a3915091565b6106ef610e56565b6106f96000610edd565b565b60006002548210610741576040517f08c379a00000000000000000000000000000000000000000000000000000000081526004016107389061147b565b60405180910390fd5b60006001600084815260200190815260200160002090503373ffffffffffffffffffffffffffffffffffffffff16837f54ff0dab85aa8f436111bbfd28693d29fcda7a9fe74299812e854a335ff8246f8360030160009054906101000a900460ff16426040516107b2929190611915565b60405180910390a38060030160009054906101000a900460ff16915050919050565b60008060009054906101000a900473ffffffffffffffffffffffffffffffffffffffff16905090565b60016020528060005260406000206000915090508060000160009054906101000a900473ffffffffffffffffffffffffffffffffffffffff1690806001018054610846906114ca565b80601f0160208091040260200160405190810160405280929190818152602001828054610872906114ca565b80156108bf5780601f10610894576101008083540402835291602001916108bf565b820191906000526020600020905b8154815290600101906020018083116108a257829003601f168201915b5050505050908060020154908060030160009054906101000a900460ff16905084565b60608282905067ffffffffffffffff81111561090157610900611638565b5b60405190808252806020026020018201604052801561092f5781602001602082028036833780820191505090505b50905060005b83839050811015610ba6576103e88484838181106109565761095561193e565b5b90506020020135111561099e576040517f08c379a0000000000000000000000000000000000000000000000000000000008152600401610995906115d0565b60405180910390fd5b60006002549050600260008154809291906109b8906115f0565b919050555060006109e18686858181106109d5576109d461193e565b5b90506020020135610c33565b905060405180608001604052803373ffffffffffffffffffffffffffffffffffffffff168152602001828152602001428152602001600115158152506001600084815260200190815260200160002060008201518160000160006101000a81548173ffffffffffffffffffffffffffffffffffffffff021916908373ffffffffffffffffffffffffffffffffffffffff1602179055506020820151816001019081610a8c9190611813565b506040820151816002015560608201518160030160006101000a81548160ff021916908315150217905550905050600360003373ffffffffffffffffffffffffffffffffffffffff1673ffffffffffffffffffffffffffffffffffffffff16815260200190815260200160002082908060018154018082558091505060019003906000526020600020016000909190919091505581848481518110610b3457610b3361193e565b5b6020026020010181815250503373ffffffffffffffffffffffffffffffffffffffff16827f48c322e8076f59f55f9906ba95ff1a3f9aa562857ae4df3e11ed2b355af6ef8f8342604051610b899291906118e5565b60405180910390a350508080610b9e906115f0565b915050610935565b5092915050565b610bb5610e56565b600073ffffffffffffffffffffffffffffffffffffffff168173ffffffffffffffffffffffffffffffffffffffff1603610c275760006040517f1e4fbdf7000000000000000000000000000000000000000000000000000000008152600401610c1e919061133c565b60405180910390fd5b610c3081610edd565b50565b60606103848210610c5e576040518060600160405280602681526020016119e3602691399050610e51565b6103208210610c87576040518060600160405280602681526020016119bd602691399050610e51565b6102bc8210610cb05760405180606001604052806023815260200161196e602391399050610e51565b6102588210610cd9576040518060600160405280602c8152602001611991602c91399050610e51565b6101f48210610d0257604051806060016040528060288152602001611a09602891399050610e51565b6101908210610d48576040518060400160405280601e81526020017f53636f72653a2042656c6f77204176657261676520283430302d3439392900008152509050610e51565b61012c8210610d8e576040518060400160405280601481526020017f53636f72653a204c6f7720283330302d333939290000000000000000000000008152509050610e51565b60c88210610dd3576040518060400160405280601981526020017f53636f72653a2056657279204c6f7720283230302d32393929000000000000008152509050610e51565b60648210610e18576040518060400160405280601881526020017f53636f72653a204d696e696d616c20283130302d3139392900000000000000008152509050610e51565b6040518060400160405280601581526020017f53636f72653a20556e72617465642028302d393929000000000000000000000081525090505b919050565b610e5e610fa1565b73ffffffffffffffffffffffffffffffffffffffff16610e7c6107d4565b73ffffffffffffffffffffffffffffffffffffffff1614610edb57610e9f610fa1565b6040517f118cdaa7000000000000000000000000000000000000000000000000000000008152600401610ed2919061133c565b60405180910390fd5b565b60008060009054906101000a900473ffffffffffffffffffffffffffffffffffffffff169050816000806101000a81548173ffffffffffffffffffffffffffffffffffffffff021916908373ffffffffffffffffffffffffffffffffffffffff1602179055508173ffffffffffffffffffffffffffffffffffffffff168173ffffffffffffffffffffffffffffffffffffffff167f8be0079c531659141344cd1fd0a4f28419497f9722a3daafe3b4186f6b6457e060405160405180910390a35050565b600033905090565b600080fd5b600080fd5b6000819050919050565b610fc681610fb3565b8114610fd157600080fd5b50565b600081359050610fe381610fbd565b92915050565b600060208284031215610fff57610ffe610fa9565b5b600061100d84828501610fd4565b91505092915050565b600073ffffffffffffffffffffffffffffffffffffffff82169050919050565b600061104182611016565b9050919050565b61105181611036565b82525050565b600081519050919050565b600082825260208201905092915050565b60005b83811015611091578082015181840152602081019050611076565b60008484015250505050565b6000601f19601f8301169050919050565b60006110b982611057565b6110c38185611062565b93506110d3818560208601611073565b6110dc8161109d565b840191505092915050565b6110f081610fb3565b82525050565b60008115159050919050565b61110b816110f6565b82525050565b60006080820190506111266000830187611048565b818103602083015261113881866110ae565b905061114760408301856110e7565b6111546060830184611102565b95945050505050565b600060208201905061117260008301846110e7565b92915050565b61118181611036565b811461118c57600080fd5b50565b60008135905061119e81611178565b92915050565b600080604083850312156111bb576111ba610fa9565b5b60006111c98582860161118f565b92505060206111da85828601610fd4565b9150509250929050565b6000602082840312156111fa576111f9610fa9565b5b60006112088482850161118f565b91505092915050565b600081519050919050565b600082825260208201905092915050565b6000819050602082019050919050565b61124681610fb3565b82525050565b6000611258838361123d565b60208301905092915050565b6000602082019050919050565b600061127c82611211565b611286818561121c565b93506112918361122d565b8060005b838110156112c25781516112a9888261124c565b97506112b483611264565b925050600181019050611295565b5085935050505092915050565b600060208201905081810360008301526112e98184611271565b905092915050565b600060408201905061130660008301856110e7565b818103602083015261131881846110ae565b90509392505050565b60006020820190506113366000830184611102565b92915050565b60006020820190506113516000830184611048565b92915050565b600080fd5b600080fd5b600080fd5b60008083601f84011261137c5761137b611357565b5b8235905067ffffffffffffffff8111156113995761139861135c565b5b6020830191508360208202830111156113b5576113b4611361565b5b9250929050565b600080602083850312156113d3576113d2610fa9565b5b600083013567ffffffffffffffff8111156113f1576113f0610fae565b5b6113fd85828601611366565b92509250509250929050565b7f5a4b4d6f636b50726f6f663a2070726f6f6620646f6573206e6f74206578697360008201527f7400000000000000000000000000000000000000000000000000000000000000602082015250565b6000611465602183611062565b915061147082611409565b604082019050919050565b6000602082019050818103600083015261149481611458565b9050919050565b7f4e487b7100000000000000000000000000000000000000000000000000000000600052602260045260246000fd5b600060028204905060018216806114e257607f821691505b6020821081036114f5576114f461149b565b5b50919050565b7f4e487b7100000000000000000000000000000000000000000000000000000000600052601160045260246000fd5b600061153582610fb3565b915061154083610fb3565b9250828203905081811115611558576115576114fb565b5b92915050565b7f5a4b4d6f636b50726f6f663a2073636f7265206d757374206265203c3d20313060008201527f3030000000000000000000000000000000000000000000000000000000000000602082015250565b60006115ba602283611062565b91506115c58261155e565b604082019050919050565b600060208201905081810360008301526115e9816115ad565b9050919050565b60006115fb82610fb3565b91507fffffffffffffffffffffffffffffffffffffffffffffffffffffffffffffffff820361162d5761162c6114fb565b5b600182019050919050565b7f4e487b7100000000000000000000000000000000000000000000000000000000600052604160045260246000fd5b60008190508160005260206000209050919050565b60006020601f8301049050919050565b600082821b905092915050565b6000600883026116c97fffffffffffffffffffffffffffffffffffffffffffffffffffffffffffffffff8261168c565b6116d3868361168c565b95508019841693508086168417925050509392505050565b6000819050919050565b600061171061170b61170684610fb3565b6116eb565b610fb3565b9050919050565b6000819050919050565b61172a836116f5565b61173e61173682611717565b848454611699565b825550505050565b600090565b611753611746565b61175e818484611721565b505050565b5b818110156117825761177760008261174b565b600181019050611764565b5050565b601f8211156117c75761179881611667565b6117a18461167c565b810160208510156117b0578190505b6117c46117bc8561167c565b830182611763565b50505b505050565b600082821c905092915050565b60006117ea600019846008026117cc565b1980831691505092915050565b600061180383836117d9565b9150826002028217905092915050565b61181c82611057565b67ffffffffffffffff81111561183557611834611638565b5b61183f82546114ca565b61184a828285611786565b600060209050601f83116001811461187d576000841561186b578287015190505b61187585826117f7565b8655506118dd565b601f19841661188b86611667565b60005b828110156118b35784890151825560018201915060208501945060208101905061188e565b868310156118d057848901516118cc601f8916826117d9565b8355505b6001600288020188555050505b505050505050565b600060408201905081810360008301526118ff81856110ae565b905061190e60208301846110e7565b9392505050565b600060408201905061192a6000830185611102565b61193760208301846110e7565b9392505050565b7f4e487b7100000000000000000000000000000000000000000000000000000000600052603260045260246000fdfe53636f72653a20476f6f6420283730302d37393929202d2053696c766572205469657253636f72653a2041626f7665204176657261676520283630302d36393929202d2042726f6e7a65205469657253636f72653a205665727920476f6f6420283830302d38393929202d20476f6c64205469657253636f72653a20457863656c6c656e7420283930302b29202d205072656d69756d205469657253636f72653a204176657261676520283530302d35393929202d205374616e646172642054696572a26469706673582212202a65594db6aac98b064fdfb3a19fa11e9c09fdfaf2ea42a2a81a6e0679a9bbb964736f6c63430008140033",
  "linkReferences": {},
  "deployedLinkReferences": {}
}