{
  "_format": "hh-sol-artifact-1",
  "contractName": "HushhIdentity",
  "sourceName": "contracts/HushhIdentity.sol",
  "abi": [
    {
      "inputs": [],
      "stateMutability": "nonpayable",
      "type": "constructor"
    },
    {
      "inputs": [
        {
          "internalType": "address",
          "name": "sender",
          "type": "address"
        },
        {
          "internalType": "uint256",
          "name": "tokenId",
          "type": "uint256"
        },
        {
          "internalType": "address",
          "name": "owner",
          "type": "address"
        }
      ],
      "name": "ERC721IncorrectOwner",
      "type": "error"
    },
    {
      "inputs": [
        {
          "internalType": "address",
          "name": "operator",
          "type": "address"
        },
        {
          "internalType": "uint256",
          "name": "tokenId",
          "type": "uint256"
        }
      ],
      "name": "ERC721InsufficientApproval",
      "type": "error"
    },
    {
      "inputs": [
        {
          "internalType": "address",
          "name": "approver",
          "type": "address"
        }
      ],
      "name": "ERC721InvalidApprover",
      "type": "error"
    },
    {
      "inputs": [
        {
          "internalType": "address",
          "name": "operator",
          "type": "address"
        }
      ],
      "name": "ERC721InvalidOperator",
      "type": "error"
    },
    {
      "inputs": [
        {
          "internalType": "address",
          "name": "owner",
          "type": "address"
        }
      ],
      "name": "ERC721InvalidOwner",
      "type": "error"
    },
    {
      "inputs": [
        {
          "internalType": "address",
          "name": "receiver",
          "type": "address"
        }
      ],
      "name": "ERC721InvalidReceiver",
      "type": "error"
    },
    {
      "inputs": [
        {
          "internalType": "address",
          "name": "sender",
          "type": "address"
        }
      ],
      "name": "ERC721InvalidSender",
      "type": "error"
    },
    {
      "inputs": [
        {
          "internalType": "uint256",
          "name": "tokenId",
          "type": "uint256"
        }
      ],
      "name": "ERC721NonexistentToken",
      "type": "error"
    },
    {
      "inputs": [
        {
          "internalType": "address",
          "name": "owner",
          "type": "address"
        }
      ],
      "name": "OwnableInvalidOwner",
      "type": "error"
    },
    {
      "inputs": [
        {
          "internalType": "address",
          "name": "account",
          "type": "address"
        }
      ],
      "name": "OwnableUnauthorizedAccount",
      "type": "error"
    },
    {
      "anonymous": false,
      "inputs": [
        {
          "indexed": true,
          "internalType": "address",
          "name": "owner",
          "type": "address"
        },
        {
          "indexed": true,
          "internalType": "address",
          "name": "approved",
          "type": "address"
        },
        {
          "indexed": true,
          "internalType": "uint256",
          "name": "tokenId",
          "type": "uint256"
        }
      ],
      "name": "Approval",
      "type": "event"
    },
    {
      "anonymous": false,
      "inputs": [
        {
          "indexed": true,
          "internalType": "address",
          "name": "owner",
          "type": "address"
        },
        {
          "indexed": true,
          "internalType": "address",
          "name": "operator",
          "type": "address"
        },
        {
          "indexed": false,
          "internalType": "bool",
          "name": "approved",
          "type": "bool"
        }
      ],
      "name": "ApprovalForAll",
      "type": "event"
    },
    {
      "anonymous": false,
      "inputs": [
        {
          "indexed": true,
          "internalType": "address",
          "name": "wallet",
          "type": "address"
        },
        {
          "indexed": false,
          "internalType": "uint256",
          "name": "oldScore",
          "type": "uint256"
        },
        {
          "indexed": false,
          "internalType": "uint256",
          "name": "newScore",
          "type": "uint256"
        },
        {
          "indexed": false,
          "internalType": "uint256",
          "name": "timestamp",
          "type": "uint256"
        }
      ],
      "name": "BrandScoreUpdated",
      "type": "event"
    },
    {
      "anonymous": false,
      "inputs": [
        {
          "indexed": true,
          "internalType": "address",
          "name": "wallet",
          "type": "address"
        },
        {
          "indexed": true,
          "internalType": "uint256",
          "name": "tokenId",
          "type": "uint256"
        },
        {
          "indexed": false,
          "internalType": "uint256",
          "name": "timestamp",
          "type": "uint256"
        }
      ],
      "name": "IdentityCreated",
      "type": "event"
    },
    {
      "anonymous": false,
      "inputs": [
        {
          "indexed": true,
          "internalType": "address",
          "name": "previousOwner",
          "type": "address"
        },
        {
          "indexed": true,
          "internalType": "address",
          "name": "newOwner",
          "type": "address"
        }
      ],
      "name": "OwnershipTransferred",
      "type": "event"
    },
    {
      "anonymous": false,
      "inputs": [
        {
          "indexed": true,
          "internalType": "address",
          "name": "from",
          "type": "address"
        },
        {
          "indexed": true,
          "internalType": "address",
          "name": "to",
          "type": "address"
        },
        {
          "indexed": true,
          "internalType": "uint256",
          "name": "tokenId",
          "type": "uint256"
        }
      ],
      "name": "Transfer",
      "type": "event"
    },
    {
      "inputs": [
        {
          "internalType": "address",
          "name": "",
          "type": "address"
        },
        {
          "internalType": "uint256",
          "name": "",
          "type": "uint256"
        }
      ],
      "name": "approve",
      "outputs": [],
      "stateMutability": "nonpayable",
      "type": "function"
    },
    {
      "inputs": [
        {
          "internalType": "address",
          "name": "owner",
          "type": "address"
        }
      ],
      "name": "balanceOf",
      "outputs": [
        {
          "internalType": "uint256",
          "name": "",
          "type": "uint256"
        }
      ],
      "stateMutability": "view",
      "type": "function"
    },
    {
      "inputs": [
        {
          "internalType": "address",
          "name": "",
          "type": "address"
        }
      ],
      "name": "brandValueScore",
      "outputs": [
        {
          "internalType": "uint256",
          "name": "",
          "type": "uint256"
        }
      ],
      "stateMutability": "view",
      "type": "function"
    },
    {
      "inputs": [
        {
          "internalType": "address",
          "name": "wallet",
          "type": "address"
        }
      ],
      "name": "checkIdentity",
      "outputs": [
        {
          "internalType": "bool",
          "name": "",
          "type": "bool"
        }
      ],
      "stateMutability": "view",
      "type": "function"
    },
    {
      "inputs": [],
      "name": "createIdentity",
      "outputs": [],
      "stateMutability": "nonpayable",
      "type": "function"
    },
    {
      "inputs": [
        {
          "internalType": "uint256",
          "name": "tokenId",
          "type": "uint256"
        }
      ],
      "name": "getApproved",
      "outputs": [
        {
          "internalType": "address",
          "name": "",
          "type": "address"
        }
      ],
      "stateMutability": "view",
      "type": "function"
    },
    {
      "inputs": [
        {
          "internalType": "address",
          "name": "wallet",
          "type": "address"
        }
      ],
      "name": "getBrandValueScore",
      "outputs": [
        {
          "internalType": "uint256",
          "name": "",
          "type": "uint256"
        }
      ],
      "stateMutability": "view",
      "type": "function"
    },
    {
      "inputs": [
        {
          "internalType": "address",
          "name": "wallet",
          "type": "address"
        }
      ],
      "name": "getTokenId",
      "outputs": [
        {
          "internalType": "uint256",
          "name": "",
          "type": "uint256"
        }
      ],
      "stateMutability": "view",
      "type": "function"
    },
    {
      "inputs": [
        {
          "internalType": "address",
          "name": "",
          "type": "address"
        }
      ],
      "name": "hasIdentity",
      "outputs": [
        {
          "internalType": "bool",
          "name": "",
          "type": "bool"
        }
      ],
      "stateMutability": "view",
      "type": "function"
    },
    {
      "inputs": [
        {
          "internalType": "address",
          "name": "owner",
          "type": "address"
        },
        {
          "internalType": "address",
          "name": "operator",
          "type": "address"
        }
      ],
      "name": "isApprovedForAll",
      "outputs": [
        {
          "internalType": "bool",
          "name": "",
          "type": "bool"
        }
      ],
      "stateMutability": "view",
      "type": "function"
    },
    {
      "inputs": [],
      "name": "name",
      "outputs": [
        {
          "internalType": "string",
          "name": "",
          "type": "string"
        }
      ],
      "stateMutability": "view",
      "type": "function"
    },
    {
      "inputs": [],
      "name": "owner",
      "outputs": [
        {
          "internalType": "address",
          "name": "",
          "type": "address"
        }
      ],
      "stateMutability": "view",
      "type": "function"
    },
    {
      "inputs": [
        {
          "internalType": "uint256",
          "name": "tokenId",
          "type": "uint256"
        }
      ],
      "name": "ownerOf",
      "outputs": [
        {
          "internalType": "address",
          "name": "",
          "type": "address"
        }
      ],
      "stateMutability": "view",
      "type": "function"
    },
    {
      "inputs": [],
      "name": "renounceOwnership",
      "outputs": [],
      "stateMutability": "nonpayable",
      "type": "function"
    },
    {
      "inputs": [
        {
          "internalType": "address",
          "name": "from",
          "type": "address"
        },
        {
          "internalType": "address",
          "name": "to",
          "type": "address"
        },
        {
          "internalType": "uint256",
          "name": "tokenId",
          "type": "uint256"
        }
      ],
      "name": "safeTransferFrom",
      "outputs": [],
      "stateMutability": "nonpayable",
      "type": "function"
    },
    {
      "inputs": [
        {
          "internalType": "address",
          "name": "from",
          "type": "address"
        },
        {
          "internalType": "address",
          "name": "to",
          "type": "address"
        },
        {
          "internalType": "uint256",
          "name": "tokenId",
          "type": "uint256"
        },
        {
          "internalType": "bytes",
          "name": "data",
          "type": "bytes"
        }
      ],
      "name": "safeTransferFrom",
      "outputs": [],
      "stateMutability": "nonpayable",
      "type": "function"
    },
    {
      "inputs": [
        {
          "internalType": "address",
          "name": "",
          "type": "address"
        },
        {
          "internalType": "bool",
          "name": "",
          "type": "bool"
        }
      ],
      "name": "setApprovalForAll",
      "outputs": [],
      "stateMutability": "nonpayable",
      "type": "function"
    },
    {
      "inputs": [
        {
          "internalType": "address",
          "name": "wallet",
          "type": "address"
        },
        {
          "internalType": "uint256",
          "name": "score",
          "type": "uint256"
        }
      ],
      "name": "setBrandValueScore",
      "outputs": [],
      "stateMutability": "nonpayable",
      "type": "function"
    },
    {
      "inputs": [
        {
          "internalType": "bytes4",
          "name": "interfaceId",
          "type": "bytes4"
        }
      ],
      "name": "supportsInterface",
      "outputs": [
        {
          "internalType": "bool",
          "name": "",
          "type": "bool"
        }
      ],
      "stateMutability": "view",
      "type": "function"
    },
    {
      "inputs": [],
      "name": "symbol",
      "outputs": [
        {
          "internalType": "string",
          "name": "",
          "type": "string"
        }
      ],
      "stateMutability": "view",
      "type": "function"
    },
    {
      "inputs": [
        {
          "internalType": "uint256",
          "name": "tokenId",
          "type": "uint256"
        }
      ],
      "name": "tokenURI",
      "outputs": [
        {
          "internalType": "string",
          "name": "",
          "type": "string"
        }
      ],
      "stateMutability": "view",
      "type": "function"
    },
    {
      "inputs": [],
      "name": "totalIdentities",
      "outputs": [
        {
          "internalType": "uint256",
          "name": "",
          "type": "uint256"
        }
      ],
      "stateMutability": "view",
      "type": "function"
    },
    {
      "inputs": [
        {
          "internalType": "address",
          "name": "from",
          "type": "address"
        },
        {
          "internalType": "address",
          "name": "to",
          "type": "address"
        },
        {
          "internalType": "uint256",
          "name": "tokenId",
          "type": "uint256"
        }
      ],
      "name": "transferFrom",
      "outputs": [],
      "stateMutability": "nonpayable",
      "type": "function"
    },
    {
      "inputs": [
        {
          "internalType": "address",
          "name": "newOwner",
          "type": "address"
        }
      ],
      "name": "transferOwnership",
      "outputs": [],
      "stateMutability": "nonpayable",
      "type": "function"
    },
    {
      "inputs": [
        {
          "internalType": "address",
          "name": "",
          "type": "address"
        }
      ],
      "name": "walletToTokenId",
      "outputs": [
        {
          "internalType": "uint256",
          "name": "",
          "type": "uint256"
        }
      ],
      "stateMutability": "view",
      "type": "function"
    }
  ],
  "bytecode": "0x60806040523480156200001157600080fd5b50336040518060400160405280600d81526020017f48757368684964656e74697479000000000000000000000000000000000000008152506040518060400160405280600881526020017f48555348482d494400000000000000000000000000000000000000000000000081525081600090816200009091906200047a565b508060019081620000a291906200047a565b505050600073ffffffffffffffffffffffffffffffffffffffff168173ffffffffffffffffffffffffffffffffffffffff16036200011a5760006040517f1e4fbdf7000000000000000000000000000000000000000000000000000000008152600401620001119190620005a6565b60405180910390fd5b6200012b816200013a60201b60201c565b506001600781905550620005c3565b6000600660009054906101000a900473ffffffffffffffffffffffffffffffffffffffff16905081600660006101000a81548173ffffffffffffffffffffffffffffffffffffffff021916908373ffffffffffffffffffffffffffffffffffffffff1602179055508173ffffffffffffffffffffffffffffffffffffffff168173ffffffffffffffffffffffffffffffffffffffff167f8be0079c531659141344cd1fd0a4f28419497f9722a3daafe3b4186f6b6457e060405160405180910390a35050565b600081519050919050565b7f4e487b7100000000000000000000000000000000000000000000000000000000600052604160045260246000fd5b7f4e487b7100000000000000000000000000000000000000000000000000000000600052602260045260246000fd5b600060028204905060018216806200028257607f821691505b6020821081036200029857620002976200023a565b5b50919050565b60008190508160005260206000209050919050565b60006020601f8301049050919050565b600082821b905092915050565b600060088302620003027fffffffffffffffffffffffffffffffffffffffffffffffffffffffffffffffff82620002c3565b6200030e8683620002c3565b95508019841693508086168417925050509392505050565b6000819050919050565b6000819050919050565b60006200035b620003556200034f8462000326565b62000330565b62000326565b9050919050565b6000819050919050565b62000377836200033a565b6200038f620003868262000362565b848454620002d0565b825550505050565b600090565b620003a662000397565b620003b38184846200036c565b505050565b5b81811015620003db57620003cf6000826200039c565b600181019050620003b9565b5050565b601f8211156200042a57620003f4816200029e565b620003ff84620002b3565b810160208510156200040f578190505b620004276200041e85620002b3565b830182620003b8565b50505b505050565b600082821c905092915050565b60006200044f600019846008026200042f565b1980831691505092915050565b60006200046a83836200043c565b9150826002028217905092915050565b620004858262000200565b67ffffffffffffffff811115620004a157620004a06200020b565b5b620004ad825462000269565b620004ba828285620003df565b600060209050601f831160018114620004f25760008415620004dd578287015190505b620004e985826200045c565b86555062000559565b601f19841662000502866200029e565b60005b828110156200052c5784890151825560018201915060208501945060208101905062000505565b868310156200054c578489015162000548601f8916826200043c565b8355505b6001600288020188555050505b505050505050565b600073ffffffffffffffffffffffffffffffffffffffff82169050919050565b60006200058e8262000561565b9050919050565b620005a08162000581565b82525050565b6000602082019050620005bd600083018462000595565b92915050565b612c4a80620005d36000396000f3fe608060405234801561001057600080fd5b50600436106101735760003560e01c806395d89b41116100de578063d2bfe7d611610097578063e985e9c511610071578063e985e9c51461046e578063f15376861461049e578063f2fde38b146104ce578063f5c5987b146104ea57610173565b8063d2bfe7d6146103f2578063d9aac06714610422578063e95cccb11461043e57610173565b806395d89b411461030c5780639c2806c71461032a578063a22cb4651461035a578063b88d4fde14610376578063bd1e369314610392578063c87b56dd146103c257610173565b806342842e0e1161013057806342842e0e1461025e57806359d21ad91461027a5780636352211e1461028457806370a08231146102b4578063715018a6146102e45780638da5cb5b146102ee57610173565b806301ffc9a71461017857806306fdde03146101a8578063081812fc146101c6578063095ea7b3146101f6578063237f1a211461021257806323b872dd14610242575b600080fd5b610192600480360381019061018d919061206c565b610508565b60405161019f91906120b4565b60405180910390f35b6101b06105ea565b6040516101bd919061215f565b60405180910390f35b6101e060048036038101906101db91906121b7565b61067c565b6040516101ed9190612225565b60405180910390f35b610210600480360381019061020b919061226c565b610698565b005b61022c600480360381019061022791906122ac565b6106d3565b60405161023991906120b4565b60405180910390f35b61025c600480360381019061025791906122d9565b6106f3565b005b610278600480360381019061027391906122d9565b6107f5565b005b610282610815565b005b61029e600480360381019061029991906121b7565b610a6d565b6040516102ab9190612225565b60405180910390f35b6102ce60048036038101906102c991906122ac565b610a7f565b6040516102db919061233b565b60405180910390f35b6102ec610b39565b005b6102f6610b4d565b6040516103039190612225565b60405180910390f35b610314610b77565b604051610321919061215f565b60405180910390f35b610344600480360381019061033f91906122ac565b610c09565b604051610351919061233b565b60405180910390f35b610374600480360381019061036f9190612382565b610c21565b005b610390600480360381019061038b91906124f7565b610c5c565b005b6103ac60048036038101906103a791906122ac565b610c81565b6040516103b9919061233b565b60405180910390f35b6103dc60048036038101906103d791906121b7565b610c99565b6040516103e9919061215f565b60405180910390f35b61040c600480360381019061040791906122ac565b610d02565b604051610419919061233b565b60405180910390f35b61043c6004803603810190610437919061226c565b610dd7565b005b610458600480360381019061045391906122ac565b610f8f565b60405161046591906120b4565b60405180910390f35b6104886004803603810190610483919061257a565b610fe5565b60405161049591906120b4565b60405180910390f35b6104b860048036038101906104b391906122ac565b611079565b6040516104c5919061233b565b60405180910390f35b6104e860048036038101906104e391906122ac565b61114e565b005b6104f26111d4565b6040516104ff919061233b565b60405180910390f35b60007f80ac58cd000000000000000000000000000000000000000000000000000000007bffffffffffffffffffffffffffffffffffffffffffffffffffffffff1916827bffffffffffffffffffffffffffffffffffffffffffffffffffffffff191614806105d357507f5b5e139f000000000000000000000000000000000000000000000000000000007bffffffffffffffffffffffffffffffffffffffffffffffffffffffff1916827bffffffffffffffffffffffffffffffffffffffffffffffffffffffff1916145b806105e357506105e2826111ea565b5b9050919050565b6060600080546105f9906125e9565b80601f0160208091040260200160405190810160405280929190818152602001828054610625906125e9565b80156106725780601f1061064757610100808354040283529160200191610672565b820191906000526020600020905b81548152906001019060200180831161065557829003601f168201915b5050505050905090565b600061068782611254565b50610691826112dc565b9050919050565b6040517f08c379a00000000000000000000000000000000000000000000000000000000081526004016106ca9061268c565b60405180910390fd5b600a6020528060005260406000206000915054906101000a900460ff1681565b600073ffffffffffffffffffffffffffffffffffffffff168273ffffffffffffffffffffffffffffffffffffffff16036107655760006040517f64a0ae9200000000000000000000000000000000000000000000000000000000815260040161075c9190612225565b60405180910390fd5b60006107798383610774611319565b611321565b90508373ffffffffffffffffffffffffffffffffffffffff168173ffffffffffffffffffffffffffffffffffffffff16146107ef578382826040517f64283d7b0000000000000000000000000000000000000000000000000000000081526004016107e6939291906126ac565b60405180910390fd5b50505050565b61081083838360405180602001604052806000815250610c5c565b505050565b600a60003373ffffffffffffffffffffffffffffffffffffffff1673ffffffffffffffffffffffffffffffffffffffff16815260200190815260200160002060009054906101000a900460ff16156108a2576040517f08c379a000000000000000000000000000000000000000000000000000000000815260040161089990612755565b60405180910390fd5b600073ffffffffffffffffffffffffffffffffffffffff163373ffffffffffffffffffffffffffffffffffffffff1603610911576040517f08c379a0000000000000000000000000000000000000000000000000000000008152600401610908906127c1565b60405180910390fd5b600060075490506007600081548092919061092b90612810565b919050555061093a33826113ee565b80600860003373ffffffffffffffffffffffffffffffffffffffff1673ffffffffffffffffffffffffffffffffffffffff168152602001908152602001600020819055506001600a60003373ffffffffffffffffffffffffffffffffffffffff1673ffffffffffffffffffffffffffffffffffffffff16815260200190815260200160002060006101000a81548160ff0219169083151502179055506000600960003373ffffffffffffffffffffffffffffffffffffffff1673ffffffffffffffffffffffffffffffffffffffff16815260200190815260200160002081905550803373ffffffffffffffffffffffffffffffffffffffff167fe4c61638deb7572058067dab2c7b74b0e94eff134e3f6e5695c684c58806c1e942604051610a62919061233b565b60405180910390a350565b6000610a7882611254565b9050919050565b60008073ffffffffffffffffffffffffffffffffffffffff168273ffffffffffffffffffffffffffffffffffffffff1603610af25760006040517f89c62b64000000000000000000000000000000000000000000000000000000008152600401610ae99190612225565b60405180910390fd5b600360008373ffffffffffffffffffffffffffffffffffffffff1673ffffffffffffffffffffffffffffffffffffffff168152602001908152602001600020549050919050565b610b4161140c565b610b4b6000611493565b565b6000600660009054906101000a900473ffffffffffffffffffffffffffffffffffffffff16905090565b606060018054610b86906125e9565b80601f0160208091040260200160405190810160405280929190818152602001828054610bb2906125e9565b8015610bff5780601f10610bd457610100808354040283529160200191610bff565b820191906000526020600020905b815481529060010190602001808311610be257829003601f168201915b5050505050905090565b60086020528060005260406000206000915090505481565b6040517f08c379a0000000000000000000000000000000000000000000000000000000008152600401610c539061268c565b60405180910390fd5b610c678484846106f3565b610c7b610c72611319565b85858585611559565b50505050565b60096020528060005260406000206000915090505481565b6060610ca482611254565b506000610caf61170a565b90506000815111610ccf5760405180602001604052806000815250610cfa565b80610cd984611721565b604051602001610cea929190612894565b6040516020818303038152906040525b915050919050565b6000600a60008373ffffffffffffffffffffffffffffffffffffffff1673ffffffffffffffffffffffffffffffffffffffff16815260200190815260200160002060009054906101000a900460ff16610d90576040517f08c379a0000000000000000000000000000000000000000000000000000000008152600401610d879061292a565b60405180910390fd5b600960008373ffffffffffffffffffffffffffffffffffffffff1673ffffffffffffffffffffffffffffffffffffffff168152602001908152602001600020549050919050565b610ddf61140c565b600a60008373ffffffffffffffffffffffffffffffffffffffff1673ffffffffffffffffffffffffffffffffffffffff16815260200190815260200160002060009054906101000a900460ff16610e6b576040517f08c379a0000000000000000000000000000000000000000000000000000000008152600401610e629061292a565b60405180910390fd5b6103e8811115610eb0576040517f08c379a0000000000000000000000000000000000000000000000000000000008152600401610ea7906129bc565b60405180910390fd5b6000600960008473ffffffffffffffffffffffffffffffffffffffff1673ffffffffffffffffffffffffffffffffffffffff16815260200190815260200160002054905081600960008573ffffffffffffffffffffffffffffffffffffffff1673ffffffffffffffffffffffffffffffffffffffff168152602001908152602001600020819055508273ffffffffffffffffffffffffffffffffffffffff167f6a517fb7189e00cb937baceceea9a2f83aa760573311ba7f075dbd11b7069da1828442604051610f82939291906129dc565b60405180910390a2505050565b6000600a60008373ffffffffffffffffffffffffffffffffffffffff1673ffffffffffffffffffffffffffffffffffffffff16815260200190815260200160002060009054906101000a900460ff169050919050565b6000600560008473ffffffffffffffffffffffffffffffffffffffff1673ffffffffffffffffffffffffffffffffffffffff16815260200190815260200160002060008373ffffffffffffffffffffffffffffffffffffffff1673ffffffffffffffffffffffffffffffffffffffff16815260200190815260200160002060009054906101000a900460ff16905092915050565b6000600a60008373ffffffffffffffffffffffffffffffffffffffff1673ffffffffffffffffffffffffffffffffffffffff16815260200190815260200160002060009054906101000a900460ff16611107576040517f08c379a00000000000000000000000000000000000000000000000000000000081526004016110fe9061292a565b60405180910390fd5b600860008373ffffffffffffffffffffffffffffffffffffffff1673ffffffffffffffffffffffffffffffffffffffff168152602001908152602001600020549050919050565b61115661140c565b600073ffffffffffffffffffffffffffffffffffffffff168173ffffffffffffffffffffffffffffffffffffffff16036111c85760006040517f1e4fbdf70000000000000000000000000000000000000000000000000000000081526004016111bf9190612225565b60405180910390fd5b6111d181611493565b50565b600060016007546111e59190612a13565b905090565b60007f01ffc9a7000000000000000000000000000000000000000000000000000000007bffffffffffffffffffffffffffffffffffffffffffffffffffffffff1916827bffffffffffffffffffffffffffffffffffffffffffffffffffffffff1916149050919050565b600080611260836117ef565b9050600073ffffffffffffffffffffffffffffffffffffffff168173ffffffffffffffffffffffffffffffffffffffff16036112d357826040517f7e2732890000000000000000000000000000000000000000000000000000000081526004016112ca919061233b565b60405180910390fd5b80915050919050565b60006004600083815260200190815260200160002060009054906101000a900473ffffffffffffffffffffffffffffffffffffffff169050919050565b600033905090565b60008061132d846117ef565b9050600073ffffffffffffffffffffffffffffffffffffffff168173ffffffffffffffffffffffffffffffffffffffff16141580156113995750600073ffffffffffffffffffffffffffffffffffffffff168573ffffffffffffffffffffffffffffffffffffffff1614155b156113d9576040517f08c379a00000000000000000000000000000000000000000000000000000000081526004016113d090612ab9565b60405180910390fd5b6113e485858561182c565b9150509392505050565b611408828260405180602001604052806000815250611a46565b5050565b611414611319565b73ffffffffffffffffffffffffffffffffffffffff16611432610b4d565b73ffffffffffffffffffffffffffffffffffffffff161461149157611455611319565b6040517f118cdaa70000000000000000000000000000000000000000000000000000000081526004016114889190612225565b60405180910390fd5b565b6000600660009054906101000a900473ffffffffffffffffffffffffffffffffffffffff16905081600660006101000a81548173ffffffffffffffffffffffffffffffffffffffff021916908373ffffffffffffffffffffffffffffffffffffffff1602179055508173ffffffffffffffffffffffffffffffffffffffff168173ffffffffffffffffffffffffffffffffffffffff167f8be0079c531659141344cd1fd0a4f28419497f9722a3daafe3b4186f6b6457e060405160405180910390a35050565b60008373ffffffffffffffffffffffffffffffffffffffff163b1115611703578273ffffffffffffffffffffffffffffffffffffffff1663150b7a02868685856040518563ffffffff1660e01b81526004016115b89493929190612b2e565b6020604051808303816000875af19250505080156115f457506040513d601f19601f820116820180604052508101906115f19190612b8f565b60015b611678573d8060008114611624576040519150601f19603f3d011682016040523d82523d6000602084013e611629565b606091505b50600081510361167057836040517f64a0ae920000000000000000000000000000000000000000000000000000000081526004016116679190612225565b60405180910390fd5b805160208201fd5b63150b7a0260e01b7bffffffffffffffffffffffffffffffffffffffffffffffffffffffff1916817bffffffffffffffffffffffffffffffffffffffffffffffffffffffff19161461170157836040517f64a0ae920000000000000000000000000000000000000000000000000000000081526004016116f89190612225565b60405180910390fd5b505b5050505050565b606060405180602001604052806000815250905090565b60606000600161173084611a6a565b01905060008167ffffffffffffffff81111561174f5761174e6123cc565b5b6040519080825280601f01601f1916602001820160405280156117815781602001600182028036833780820191505090505b509050600082602083010190505b6001156117e4578080600190039150507f3031323334353637383961626364656600000000000000000000000000000000600a86061a8153600a85816117d8576117d7612bbc565b5b0494506000850361178f575b819350505050919050565b60006002600083815260200190815260200160002060009054906101000a900473ffffffffffffffffffffffffffffffffffffffff169050919050565b600080611838846117ef565b9050600073ffffffffffffffffffffffffffffffffffffffff168373ffffffffffffffffffffffffffffffffffffffff161461187a57611879818486611bbd565b5b600073ffffffffffffffffffffffffffffffffffffffff168173ffffffffffffffffffffffffffffffffffffffff161461190b576118bc600085600080611c81565b6001600360008373ffffffffffffffffffffffffffffffffffffffff1673ffffffffffffffffffffffffffffffffffffffff168152602001908152602001600020600082825403925050819055505b600073ffffffffffffffffffffffffffffffffffffffff168573ffffffffffffffffffffffffffffffffffffffff161461198e576001600360008773ffffffffffffffffffffffffffffffffffffffff1673ffffffffffffffffffffffffffffffffffffffff168152602001908152602001600020600082825401925050819055505b846002600086815260200190815260200160002060006101000a81548173ffffffffffffffffffffffffffffffffffffffff021916908373ffffffffffffffffffffffffffffffffffffffff160217905550838573ffffffffffffffffffffffffffffffffffffffff168273ffffffffffffffffffffffffffffffffffffffff167fddf252ad1be2c89b69c2b068fc378daa952ba7f163c4a11628f55a4df523b3ef60405160405180910390a4809150509392505050565b611a508383611e46565b611a65611a5b611319565b6000858585611559565b505050565b600080600090507a184f03e93ff9f4daa797ed6e38ed64bf6a1f0100000000000000008310611ac8577a184f03e93ff9f4daa797ed6e38ed64bf6a1f0100000000000000008381611abe57611abd612bbc565b5b0492506040810190505b6d04ee2d6d415b85acef81000000008310611b05576d04ee2d6d415b85acef81000000008381611afb57611afa612bbc565b5b0492506020810190505b662386f26fc100008310611b3457662386f26fc100008381611b2a57611b29612bbc565b5b0492506010810190505b6305f5e1008310611b5d576305f5e1008381611b5357611b52612bbc565b5b0492506008810190505b6127108310611b82576127108381611b7857611b77612bbc565b5b0492506004810190505b60648310611ba55760648381611b9b57611b9a612bbc565b5b0492506002810190505b600a8310611bb4576001810190505b80915050919050565b611bc8838383611f3f565b611c7c57600073ffffffffffffffffffffffffffffffffffffffff168373ffffffffffffffffffffffffffffffffffffffff1603611c3d57806040517f7e273289000000000000000000000000000000000000000000000000000000008152600401611c34919061233b565b60405180910390fd5b81816040517f177e802f000000000000000000000000000000000000000000000000000000008152600401611c73929190612beb565b60405180910390fd5b505050565b8080611cba5750600073ffffffffffffffffffffffffffffffffffffffff168273ffffffffffffffffffffffffffffffffffffffff1614155b15611dee576000611cca84611254565b9050600073ffffffffffffffffffffffffffffffffffffffff168373ffffffffffffffffffffffffffffffffffffffff1614158015611d3557508273ffffffffffffffffffffffffffffffffffffffff168173ffffffffffffffffffffffffffffffffffffffff1614155b8015611d485750611d468184610fe5565b155b15611d8a57826040517fa9fbf51f000000000000000000000000000000000000000000000000000000008152600401611d819190612225565b60405180910390fd5b8115611dec57838573ffffffffffffffffffffffffffffffffffffffff168273ffffffffffffffffffffffffffffffffffffffff167f8c5be1e5ebec7d5bd14f71427d1e84f3dd0314c0f7b2291e5b200ac8c7c3b92560405160405180910390a45b505b836004600085815260200190815260200160002060006101000a81548173ffffffffffffffffffffffffffffffffffffffff021916908373ffffffffffffffffffffffffffffffffffffffff16021790555050505050565b600073ffffffffffffffffffffffffffffffffffffffff168273ffffffffffffffffffffffffffffffffffffffff1603611eb85760006040517f64a0ae92000000000000000000000000000000000000000000000000000000008152600401611eaf9190612225565b60405180910390fd5b6000611ec683836000611321565b9050600073ffffffffffffffffffffffffffffffffffffffff168173ffffffffffffffffffffffffffffffffffffffff1614611f3a5760006040517f73c6ac6e000000000000000000000000000000000000000000000000000000008152600401611f319190612225565b60405180910390fd5b505050565b60008073ffffffffffffffffffffffffffffffffffffffff168373ffffffffffffffffffffffffffffffffffffffff1614158015611ff757508273ffffffffffffffffffffffffffffffffffffffff168473ffffffffffffffffffffffffffffffffffffffff161480611fb85750611fb78484610fe5565b5b80611ff657508273ffffffffffffffffffffffffffffffffffffffff16611fde836112dc565b73ffffffffffffffffffffffffffffffffffffffff16145b5b90509392505050565b6000604051905090565b600080fd5b600080fd5b60007fffffffff0000000000000000000000000000000000000000000000000000000082169050919050565b61204981612014565b811461205457600080fd5b50565b60008135905061206681612040565b92915050565b6000602082840312156120825761208161200a565b5b600061209084828501612057565b91505092915050565b60008115159050919050565b6120ae81612099565b82525050565b60006020820190506120c960008301846120a5565b92915050565b600081519050919050565b600082825260208201905092915050565b60005b838110156121095780820151818401526020810190506120ee565b60008484015250505050565b6000601f19601f8301169050919050565b6000612131826120cf565b61213b81856120da565b935061214b8185602086016120eb565b61215481612115565b840191505092915050565b600060208201905081810360008301526121798184612126565b905092915050565b6000819050919050565b61219481612181565b811461219f57600080fd5b50565b6000813590506121b18161218b565b92915050565b6000602082840312156121cd576121cc61200a565b5b60006121db848285016121a2565b91505092915050565b600073ffffffffffffffffffffffffffffffffffffffff82169050919050565b600061220f826121e4565b9050919050565b61221f81612204565b82525050565b600060208201905061223a6000830184612216565b92915050565b61224981612204565b811461225457600080fd5b50565b60008135905061226681612240565b92915050565b600080604083850312156122835761228261200a565b5b600061229185828601612257565b92505060206122a2858286016121a2565b9150509250929050565b6000602082840312156122c2576122c161200a565b5b60006122d084828501612257565b91505092915050565b6000806000606084860312156122f2576122f161200a565b5b600061230086828701612257565b935050602061231186828701612257565b9250506040612322868287016121a2565b9150509250925092565b61233581612181565b82525050565b6000602082019050612350600083018461232c565b92915050565b61235f81612099565b811461236a57600080fd5b50565b60008135905061237c81612356565b92915050565b600080604083850312156123995761239861200a565b5b60006123a785828601612257565b92505060206123b88582860161236d565b9150509250929050565b600080fd5b600080fd5b7f4e487b7100000000000000000000000000000000000000000000000000000000600052604160045260246000fd5b61240482612115565b810181811067ffffffffffffffff82111715612423576124226123cc565b5b80604052505050565b6000612436612000565b905061244282826123fb565b919050565b600067ffffffffffffffff821115612462576124616123cc565b5b61246b82612115565b9050602081019050919050565b82818337600083830152505050565b600061249a61249584612447565b61242c565b9050828152602081018484840111156124b6576124b56123c7565b5b6124c1848285612478565b509392505050565b600082601f8301126124de576124dd6123c2565b5b81356124ee848260208601612487565b91505092915050565b600080600080608085870312156125115761251061200a565b5b600061251f87828801612257565b945050602061253087828801612257565b9350506040612541878288016121a2565b925050606085013567ffffffffffffffff8111156125625761256161200f565b5b61256e878288016124c9565b91505092959194509250565b600080604083850312156125915761259061200a565b5b600061259f85828601612257565b92505060206125b085828601612257565b9150509250929050565b7f4e487b7100000000000000000000000000000000000000000000000000000000600052602260045260246000fd5b6000600282049050600182168061260157607f821691505b602082108103612614576126136125ba565b5b50919050565b7f48757368684964656e746974793a20536f756c426f756e6420746f6b656e732060008201527f63616e6e6f7420626520617070726f7665640000000000000000000000000000602082015250565b60006126766032836120da565b91506126818261261a565b604082019050919050565b600060208201905081810360008301526126a581612669565b9050919050565b60006060820190506126c16000830186612216565b6126ce602083018561232c565b6126db6040830184612216565b949350505050565b7f48757368684964656e746974793a206964656e7469747920616c72656164792060008201527f6578697374730000000000000000000000000000000000000000000000000000602082015250565b600061273f6026836120da565b915061274a826126e3565b604082019050919050565b6000602082019050818103600083015261276e81612732565b9050919050565b7f48757368684964656e746974793a20696e76616c696420616464726573730000600082015250565b60006127ab601e836120da565b91506127b682612775565b602082019050919050565b600060208201905081810360008301526127da8161279e565b9050919050565b7f4e487b7100000000000000000000000000000000000000000000000000000000600052601160045260246000fd5b600061281b82612181565b91507fffffffffffffffffffffffffffffffffffffffffffffffffffffffffffffffff820361284d5761284c6127e1565b5b600182019050919050565b600081905092915050565b600061286e826120cf565b6128788185612858565b93506128888185602086016120eb565b80840191505092915050565b60006128a08285612863565b91506128ac8284612863565b91508190509392505050565b7f48757368684964656e746974793a2077616c6c657420686173206e6f2069646560008201527f6e74697479000000000000000000000000000000000000000000000000000000602082015250565b60006129146025836120da565b915061291f826128b8565b604082019050919050565b6000602082019050818103600083015261294381612907565b9050919050565b7f48757368684964656e746974793a2073636f7265206d757374206265203c3d2060008201527f3130303000000000000000000000000000000000000000000000000000000000602082015250565b60006129a66024836120da565b91506129b18261294a565b604082019050919050565b600060208201905081810360008301526129d581612999565b9050919050565b60006060820190506129f1600083018661232c565b6129fe602083018561232c565b612a0b604083018461232c565b949350505050565b6000612a1e82612181565b9150612a2983612181565b9250828203905081811115612a4157612a406127e1565b5b92915050565b7f48757368684964656e746974793a20536f756c426f756e6420746f6b656e732060008201527f63616e6e6f74206265207472616e736665727265640000000000000000000000602082015250565b6000612aa36035836120da565b9150612aae82612a47565b604082019050919050565b60006020820190508181036000830152612ad281612a96565b9050919050565b600081519050919050565b600082825260208201905092915050565b6000612b0082612ad9565b612b0a8185612ae4565b9350612b1a8185602086016120eb565b612b2381612115565b840191505092915050565b6000608082019050612b436000830187612216565b612b506020830186612216565b612b5d604083018561232c565b8181036060830152612b6f8184612af5565b905095945050505050565b600081519050612b8981612040565b92915050565b600060208284031215612ba557612ba461200a565b5b6000612bb384828501612b7a565b91505092915050565b7f4e487b7100000000000000000000000000000000000000000000000000000000600052601260045260246000fd5b6000604082019050612c006000830185612216565b612c0d602083018461232c565b939250505056fea2646970667358221220a5a2a35a535fd35b511aa56dadf8c784511f68728575b555f1f937092d49385b64736f6c63430008140033",
  "linkReferences": {},
  "deployedLinkReferences": {}
}