{
  "_format": "hh-sol-artifact-1",
  "contractName": "HushhIdentity",
  "sourceName": "contracts/HushhIdentity.sol",
  "abi": [
    {
      "inputs": [],
      "stateMutability": "nonpayable",
      "type": "constructor"
    },
    {
      "inputs": [
        {
          "internalType": "address",
          "name": "sender",
          "type": "address"
        },
        {
          "internalType": "uint256",
          "name": "tokenId",
          "type": "uint256"
        },
        {
          "internalType": "address",
          "name": "owner",
          "type": "address"
        }
      ],
      "name": "ERC721IncorrectOwner",
      "type": "error"
    },
    {
      "inputs": [
        {
          "internalType": "address",
          "name": "operator",
          "type": "address"
        },
        {
          "internalType": "uint256",
          "name": "tokenId",
          "type": "uint256"
        }
      ],
      "name": "ERC721InsufficientApproval",
      "type": "error"
    },
    {
      "inputs": [
        {
          "internalType": "address",
          "name": "approver",
          "type": "address"
        }
      ],
      "name": "ERC721InvalidApprover",
      "type": "error"
    },
    {
      "inputs": [
        {
          "internalType": "address",
          "name": "operator",
          "type": "address"
        }
      ],
      "name": "ERC721InvalidOperator",
      "type": "error"
    },
    {
      "inputs": [
        {
          "internalType": "address",
          "name": "owner",
          "type": "address"
        }
      ],
      "name": "ERC721InvalidOwner",
      "type": "error"
    },
    {
      "inputs": [
        {
          "internalType": "address",
          "name": "receiver",
          "type": "address"
        }
      ],
      "name": "ERC721InvalidReceiver",
      "type": "error"
    },
    {
      "inputs": [
        {
          "internalType": "address",
          "name": "sender",
          "type": "address"
        }
      ],
      "name": "ERC721InvalidSender",
      "type": "error"
    },
    {
      "inputs": [
        {
          "internalType": "uint256",
          "name": "tokenId",
          "type": "uint256"
        }
      ],
      "name": "ERC721NonexistentToken",
      "type": "error"
    },
    {
      "inputs": [
        {
          "internalType": "address",
          "name": "owner",
          "type": "address"
        }
      ],
      "name": "OwnableInvalidOwner",
      "type": "error"
    },
    {
      "inputs": [
        {
          "internalType": "address",
          "name": "account",
          "type": "address"
        }
      ],
      "name": "OwnableUnauthorizedAccount",
      "type": "error"
    },
    {
      "anonymous": false,
      "inputs": [
        {
          "indexed": true,
          "internalType": "address",
          "name": "owner",
          "type": "address"
        },
        {
          "indexed": true,
          "internalType": "address",
          "name": "approved",
          "type": "address"
        },
        {
          "indexed": true,
          "internalType": "uint256",
          "name": "tokenId",
          "type": "uint256"
        }
      ],
      "name": "Approval",
      "type": "event"
    },
    {
      "anonymous": false,
      "inputs": [
        {
          "indexed": true,
          "internalType": "address",
          "name": "owner",
          "type": "address"
        },
        {
          "indexed": true,
          "internalType": "address",
          "name": "operator",
          "type": "address"
        },
        {
          "indexed": false,
          "internalType": "bool",
          "name": "approved",
          "type": "bool"
        }
      ],
      "name": "ApprovalForAll",
      "type": "event"
    },
    {
      "anonymous": false,
      "inputs": [
        {
          "indexed": true,
          "internalType": "address",
          "name": "brand",
          "type": "address"
        }
      ],
      "name": "BrandAdded",
      "type": "event"
    },
    {
      "anonymous": false,
      "inputs": [
        {
          "indexed": true,
          "internalType": "address",
          "name": "brand",
          "type": "address"
        }
      ],
      "name": "BrandRemoved",
      "type": "event"
    },
    {
      "anonymous": false,
      "inputs": [
        {
          "indexed": false,
          "internalType": "address",
          "name": "wallet",
          "type": "address"
        },
        {
          "indexed": false,
          "internalType": "uint256",
          "name": "tokenId",
          "type": "uint256"
        },
        {
          "indexed": false,
          "internalType": "uint256",
          "name": "time",
          "type": "uint256"
        }
      ],
      "name": "IdentityCreated",
      "type": "event"
    },
    {
      "anonymous": false,
      "inputs": [
        {
          "indexed": true,
          "internalType": "address",
          "name": "previousOwner",
          "type": "address"
        },
        {
          "indexed": true,
          "internalType": "address",
          "name": "newOwner",
          "type": "address"
        }
      ],
      "name": "OwnershipTransferred",
      "type": "event"
    },
    {
      "anonymous": false,
      "inputs": [
        {
          "indexed": false,
          "internalType": "bool",
          "name": "status",
          "type": "bool"
        }
      ],
      "name": "PublicModeEnabled",
      "type": "event"
    },
    {
      "anonymous": false,
      "inputs": [
        {
          "indexed": false,
          "internalType": "address",
          "name": "wallet",
          "type": "address"
        },
        {
          "indexed": false,
          "internalType": "uint256",
          "name": "oldScore",
          "type": "uint256"
        },
        {
          "indexed": false,
          "internalType": "uint256",
          "name": "newScore",
          "type": "uint256"
        },
        {
          "indexed": false,
          "internalType": "uint256",
          "name": "time",
          "type": "uint256"
        }
      ],
      "name": "ScoreUpdated",
      "type": "event"
    },
    {
      "anonymous": false,
      "inputs": [
        {
          "indexed": true,
          "internalType": "address",
          "name": "from",
          "type": "address"
        },
        {
          "indexed": true,
          "internalType": "address",
          "name": "to",
          "type": "address"
        },
        {
          "indexed": true,
          "internalType": "uint256",
          "name": "tokenId",
          "type": "uint256"
        }
      ],
      "name": "Transfer",
      "type": "event"
    },
    {
      "inputs": [
        {
          "internalType": "address",
          "name": "brand",
          "type": "address"
        }
      ],
      "name": "addBrand",
      "outputs": [],
      "stateMutability": "nonpayable",
      "type": "function"
    },
    {
      "inputs": [
        {
          "internalType": "address",
          "name": "to",
          "type": "address"
        },
        {
          "internalType": "uint256",
          "name": "tokenId",
          "type": "uint256"
        }
      ],
      "name": "approve",
      "outputs": [],
      "stateMutability": "nonpayable",
      "type": "function"
    },
    {
      "inputs": [
        {
          "internalType": "address",
          "name": "owner",
          "type": "address"
        }
      ],
      "name": "balanceOf",
      "outputs": [
        {
          "internalType": "uint256",
          "name": "",
          "type": "uint256"
        }
      ],
      "stateMutability": "view",
      "type": "function"
    },
    {
      "inputs": [
        {
          "internalType": "address",
          "name": "",
          "type": "address"
        }
      ],
      "name": "brandValueScore",
      "outputs": [
        {
          "internalType": "uint256",
          "name": "",
          "type": "uint256"
        }
      ],
      "stateMutability": "view",
      "type": "function"
    },
    {
      "inputs": [
        {
          "internalType": "address",
          "name": "wallet",
          "type": "address"
        }
      ],
      "name": "checkIdentity",
      "outputs": [
        {
          "internalType": "bool",
          "name": "",
          "type": "bool"
        }
      ],
      "stateMutability": "view",
      "type": "function"
    },
    {
      "inputs": [
        {
          "internalType": "uint256",
          "name": "tokenId",
          "type": "uint256"
        }
      ],
      "name": "getApproved",
      "outputs": [
        {
          "internalType": "address",
          "name": "",
          "type": "address"
        }
      ],
      "stateMutability": "view",
      "type": "function"
    },
    {
      "inputs": [
        {
          "internalType": "address",
          "name": "wallet",
          "type": "address"
        }
      ],
      "name": "getBrandValueScore",
      "outputs": [
        {
          "internalType": "uint256",
          "name": "",
          "type": "uint256"
        }
      ],
      "stateMutability": "view",
      "type": "function"
    },
    {
      "inputs": [
        {
          "internalType": "address",
          "name": "",
          "type": "address"
        }
      ],
      "name": "hasIdentity",
      "outputs": [
        {
          "internalType": "bool",
          "name": "",
          "type": "bool"
        }
      ],
      "stateMutability": "view",
      "type": "function"
    },
    {
      "inputs": [
        {
          "internalType": "address",
          "name": "owner",
          "type": "address"
        },
        {
          "internalType": "address",
          "name": "operator",
          "type": "address"
        }
      ],
      "name": "isApprovedForAll",
      "outputs": [
        {
          "internalType": "bool",
          "name": "",
          "type": "bool"
        }
      ],
      "stateMutability": "view",
      "type": "function"
    },
    {
      "inputs": [
        {
          "internalType": "address",
          "name": "",
          "type": "address"
        }
      ],
      "name": "isBrand",
      "outputs": [
        {
          "internalType": "bool",
          "name": "",
          "type": "bool"
        }
      ],
      "stateMutability": "view",
      "type": "function"
    },
    {
      "inputs": [],
      "name": "mintIdentity",
      "outputs": [],
      "stateMutability": "nonpayable",
      "type": "function"
    },
    {
      "inputs": [],
      "name": "name",
      "outputs": [
        {
          "internalType": "string",
          "name": "",
          "type": "string"
        }
      ],
      "stateMutability": "view",
      "type": "function"
    },
    {
      "inputs": [],
      "name": "owner",
      "outputs": [
        {
          "internalType": "address",
          "name": "",
          "type": "address"
        }
      ],
      "stateMutability": "view",
      "type": "function"
    },
    {
      "inputs": [
        {
          "internalType": "uint256",
          "name": "tokenId",
          "type": "uint256"
        }
      ],
      "name": "ownerOf",
      "outputs": [
        {
          "internalType": "address",
          "name": "",
          "type": "address"
        }
      ],
      "stateMutability": "view",
      "type": "function"
    },
    {
      "inputs": [],
      "name": "publicScoringEnabled",
      "outputs": [
        {
          "internalType": "bool",
          "name": "",
          "type": "bool"
        }
      ],
      "stateMutability": "view",
      "type": "function"
    },
    {
      "inputs": [
        {
          "internalType": "address",
          "name": "brand",
          "type": "address"
        }
      ],
      "name": "removeBrand",
      "outputs": [],
      "stateMutability": "nonpayable",
      "type": "function"
    },
    {
      "inputs": [],
      "name": "renounceOwnership",
      "outputs": [],
      "stateMutability": "nonpayable",
      "type": "function"
    },
    {
      "inputs": [
        {
          "internalType": "address",
          "name": "from",
          "type": "address"
        },
        {
          "internalType": "address",
          "name": "to",
          "type": "address"
        },
        {
          "internalType": "uint256",
          "name": "tokenId",
          "type": "uint256"
        }
      ],
      "name": "safeTransferFrom",
      "outputs": [],
      "stateMutability": "nonpayable",
      "type": "function"
    },
    {
      "inputs": [
        {
          "internalType": "address",
          "name": "from",
          "type": "address"
        },
        {
          "internalType": "address",
          "name": "to",
          "type": "address"
        },
        {
          "internalType": "uint256",
          "name": "tokenId",
          "type": "uint256"
        },
        {
          "internalType": "bytes",
          "name": "data",
          "type": "bytes"
        }
      ],
      "name": "safeTransferFrom",
      "outputs": [],
      "stateMutability": "nonpayable",
      "type": "function"
    },
    {
      "inputs": [
        {
          "internalType": "address",
          "name": "operator",
          "type": "address"
        },
        {
          "internalType": "bool",
          "name": "approved",
          "type": "bool"
        }
      ],
      "name": "setApprovalForAll",
      "outputs": [],
      "stateMutability": "nonpayable",
      "type": "function"
    },
    {
      "inputs": [
        {
          "internalType": "address",
          "name": "wallet",
          "type": "address"
        },
        {
          "internalType": "uint256",
          "name": "score",
          "type": "uint256"
        }
      ],
      "name": "setBrandValueScore",
      "outputs": [],
      "stateMutability": "nonpayable",
      "type": "function"
    },
    {
      "inputs": [
        {
          "internalType": "bytes4",
          "name": "interfaceId",
          "type": "bytes4"
        }
      ],
      "name": "supportsInterface",
      "outputs": [
        {
          "internalType": "bool",
          "name": "",
          "type": "bool"
        }
      ],
      "stateMutability": "view",
      "type": "function"
    },
    {
      "inputs": [],
      "name": "symbol",
      "outputs": [
        {
          "internalType": "string",
          "name": "",
          "type": "string"
        }
      ],
      "stateMutability": "view",
      "type": "function"
    },
    {
      "inputs": [
        {
          "internalType": "bool",
          "name": "status",
          "type": "bool"
        }
      ],
      "name": "togglePublicMode",
      "outputs": [],
      "stateMutability": "nonpayable",
      "type": "function"
    },
    {
      "inputs": [
        {
          "internalType": "uint256",
          "name": "tokenId",
          "type": "uint256"
        }
      ],
      "name": "tokenURI",
      "outputs": [
        {
          "internalType": "string",
          "name": "",
          "type": "string"
        }
      ],
      "stateMutability": "view",
      "type": "function"
    },
    {
      "inputs": [
        {
          "internalType": "address",
          "name": "from",
          "type": "address"
        },
        {
          "internalType": "address",
          "name": "to",
          "type": "address"
        },
        {
          "internalType": "uint256",
          "name": "tokenId",
          "type": "uint256"
        }
      ],
      "name": "transferFrom",
      "outputs": [],
      "stateMutability": "nonpayable",
      "type": "function"
    },
    {
      "inputs": [
        {
          "internalType": "address",
          "name": "newOwner",
          "type": "address"
        }
      ],
      "name": "transferOwnership",
      "outputs": [],
      "stateMutability": "nonpayable",
      "type": "function"
    },
    {
      "inputs": [
        {
          "internalType": "address",
          "name": "",
          "type": "address"
        }
      ],
      "name": "walletToTokenId",
      "outputs": [
        {
          "internalType": "uint256",
          "name": "",
          "type": "uint256"
        }
      ],
      "stateMutability": "view",
      "type": "function"
    }
  ],
  "bytecode": "0x60806040526000600c60006101000a81548160ff0219169083151502179055503480156200002c57600080fd5b50336040518060400160405280600d81526020017f48757368684964656e74697479000000000000000000000000000000000000008152506040518060400160405280600881526020017f48555348482d49440000000000000000000000000000000000000000000000008152508160009081620000ab919062000495565b508060019081620000bd919062000495565b505050600073ffffffffffffffffffffffffffffffffffffffff168173ffffffffffffffffffffffffffffffffffffffff1603620001355760006040517f1e4fbdf70000000000000000000000000000000000000000000000000000000081526004016200012c9190620005c1565b60405180910390fd5b62000146816200015560201b60201c565b506001600781905550620005de565b6000600660009054906101000a900473ffffffffffffffffffffffffffffffffffffffff16905081600660006101000a81548173ffffffffffffffffffffffffffffffffffffffff021916908373ffffffffffffffffffffffffffffffffffffffff1602179055508173ffffffffffffffffffffffffffffffffffffffff168173ffffffffffffffffffffffffffffffffffffffff167f8be0079c531659141344cd1fd0a4f28419497f9722a3daafe3b4186f6b6457e060405160405180910390a35050565b600081519050919050565b7f4e487b7100000000000000000000000000000000000000000000000000000000600052604160045260246000fd5b7f4e487b7100000000000000000000000000000000000000000000000000000000600052602260045260246000fd5b600060028204905060018216806200029d57607f821691505b602082108103620002b357620002b262000255565b5b50919050565b60008190508160005260206000209050919050565b60006020601f8301049050919050565b600082821b905092915050565b6000600883026200031d7fffffffffffffffffffffffffffffffffffffffffffffffffffffffffffffffff82620002de565b620003298683620002de565b95508019841693508086168417925050509392505050565b6000819050919050565b6000819050919050565b600062000376620003706200036a8462000341565b6200034b565b62000341565b9050919050565b6000819050919050565b620003928362000355565b620003aa620003a1826200037d565b848454620002eb565b825550505050565b600090565b620003c1620003b2565b620003ce81848462000387565b505050565b5b81811015620003f657620003ea600082620003b7565b600181019050620003d4565b5050565b601f82111562000445576200040f81620002b9565b6200041a84620002ce565b810160208510156200042a578190505b620004426200043985620002ce565b830182620003d3565b50505b505050565b600082821c905092915050565b60006200046a600019846008026200044a565b1980831691505092915050565b600062000485838362000457565b9150826002028217905092915050565b620004a0826200021b565b67ffffffffffffffff811115620004bc57620004bb62000226565b5b620004c8825462000284565b620004d5828285620003fa565b600060209050601f8311600181146200050d5760008415620004f8578287015190505b62000504858262000477565b86555062000574565b601f1984166200051d86620002b9565b60005b82811015620005475784890151825560018201915060208501945060208101905062000520565b8683101562000567578489015162000563601f89168262000457565b8355505b6001600288020188555050505b505050505050565b600073ffffffffffffffffffffffffffffffffffffffff82169050919050565b6000620005a9826200057c565b9050919050565b620005bb816200059c565b82525050565b6000602082019050620005d86000830184620005b0565b92915050565b612c5e80620005ee6000396000f3fe608060405234801561001057600080fd5b50600436106101c45760003560e01c806395d89b41116100f9578063bd1e369311610097578063d9aac06711610071578063d9aac06714610515578063e95cccb114610531578063e985e9c514610561578063f2fde38b14610591576101c4565b8063bd1e369314610485578063c87b56dd146104b5578063d2bfe7d6146104e5576101c4565b8063a68bfa6e116100d3578063a68bfa6e14610427578063aa0ebdc614610431578063b53fc8a61461044d578063b88d4fde14610469576101c4565b806395d89b41146103bd5780639c2806c7146103db578063a22cb4651461040b576101c4565b806342842e0e1161016657806370a082311161014057806370a0823114610347578063715018a6146103775780637d59db27146103815780638da5cb5b1461039f576101c4565b806342842e0e146102df57806358aa5b2b146102fb5780636352211e14610317576101c4565b8063081812fc116101a2578063081812fc14610247578063095ea7b314610277578063237f1a211461029357806323b872dd146102c3576101c4565b806301ffc9a7146101c957806305a5562d146101f957806306fdde0314610229575b600080fd5b6101e360048036038101906101de91906121d8565b6105ad565b6040516101f09190612220565b60405180910390f35b610213600480360381019061020e9190612299565b61068f565b6040516102209190612220565b60405180910390f35b6102316106af565b60405161023e9190612356565b60405180910390f35b610261600480360381019061025c91906123ae565b610741565b60405161026e91906123ea565b60405180910390f35b610291600480360381019061028c9190612405565b61075d565b005b6102ad60048036038101906102a89190612299565b610773565b6040516102ba9190612220565b60405180910390f35b6102dd60048036038101906102d89190612445565b610793565b005b6102f960048036038101906102f49190612445565b610895565b005b61031560048036038101906103109190612299565b6108b5565b005b610331600480360381019061032c91906123ae565b61095b565b60405161033e91906123ea565b60405180910390f35b610361600480360381019061035c9190612299565b61096d565b60405161036e91906124a7565b60405180910390f35b61037f610a27565b005b610389610a3b565b6040516103969190612220565b60405180910390f35b6103a7610a4e565b6040516103b491906123ea565b60405180910390f35b6103c5610a78565b6040516103d29190612356565b60405180910390f35b6103f560048036038101906103f09190612299565b610b0a565b60405161040291906124a7565b60405180910390f35b610425600480360381019061042091906124ee565b610b22565b005b61042f610b38565b005b61044b60048036038101906104469190612299565b610cc4565b005b6104676004803603810190610462919061252e565b610d6a565b005b610483600480360381019061047e9190612690565b610dc6565b005b61049f600480360381019061049a9190612299565b610deb565b6040516104ac91906124a7565b60405180910390f35b6104cf60048036038101906104ca91906123ae565b610e03565b6040516104dc9190612356565b60405180910390f35b6104ff60048036038101906104fa9190612299565b610e6c565b60405161050c91906124a7565b60405180910390f35b61052f600480360381019061052a9190612405565b610eb5565b005b61054b60048036038101906105469190612299565b611132565b6040516105589190612220565b60405180910390f35b61057b60048036038101906105769190612713565b611188565b6040516105889190612220565b60405180910390f35b6105ab60048036038101906105a69190612299565b61121c565b005b60007f80ac58cd000000000000000000000000000000000000000000000000000000007bffffffffffffffffffffffffffffffffffffffffffffffffffffffff1916827bffffffffffffffffffffffffffffffffffffffffffffffffffffffff1916148061067857507f5b5e139f000000000000000000000000000000000000000000000000000000007bffffffffffffffffffffffffffffffffffffffffffffffffffffffff1916827bffffffffffffffffffffffffffffffffffffffffffffffffffffffff1916145b806106885750610687826112a2565b5b9050919050565b600b6020528060005260406000206000915054906101000a900460ff1681565b6060600080546106be90612782565b80601f01602080910402602001604051908101604052809291908181526020018280546106ea90612782565b80156107375780601f1061070c57610100808354040283529160200191610737565b820191906000526020600020905b81548152906001019060200180831161071a57829003601f168201915b5050505050905090565b600061074c8261130c565b5061075682611394565b9050919050565b61076f828261076a6113d1565b6113d9565b5050565b60096020528060005260406000206000915054906101000a900460ff1681565b600073ffffffffffffffffffffffffffffffffffffffff168273ffffffffffffffffffffffffffffffffffffffff16036108055760006040517f64a0ae920000000000000000000000000000000000000000000000000000000081526004016107fc91906123ea565b60405180910390fd5b600061081983836108146113d1565b6113eb565b90508373ffffffffffffffffffffffffffffffffffffffff168173ffffffffffffffffffffffffffffffffffffffff161461088f578382826040517f64283d7b000000000000000000000000000000000000000000000000000000008152600401610886939291906127b3565b60405180910390fd5b50505050565b6108b083838360405180602001604052806000815250610dc6565b505050565b6108bd611605565b6001600b60008373ffffffffffffffffffffffffffffffffffffffff1673ffffffffffffffffffffffffffffffffffffffff16815260200190815260200160002060006101000a81548160ff0219169083151502179055508073ffffffffffffffffffffffffffffffffffffffff167ff294465ab6aaa3650993093431777d23cda2be98f0ce448bbd202694c8beafb960405160405180910390a250565b60006109668261130c565b9050919050565b60008073ffffffffffffffffffffffffffffffffffffffff168273ffffffffffffffffffffffffffffffffffffffff16036109e05760006040517f89c62b640000000000000000000000000000000000000000000000000000000081526004016109d791906123ea565b60405180910390fd5b600360008373ffffffffffffffffffffffffffffffffffffffff1673ffffffffffffffffffffffffffffffffffffffff168152602001908152602001600020549050919050565b610a2f611605565b610a39600061168c565b565b600c60009054906101000a900460ff1681565b6000600660009054906101000a900473ffffffffffffffffffffffffffffffffffffffff16905090565b606060018054610a8790612782565b80601f0160208091040260200160405190810160405280929190818152602001828054610ab390612782565b8015610b005780601f10610ad557610100808354040283529160200191610b00565b820191906000526020600020905b815481529060010190602001808311610ae357829003601f168201915b5050505050905090565b60086020528060005260406000206000915090505481565b610b34610b2d6113d1565b8383611752565b5050565b600960003373ffffffffffffffffffffffffffffffffffffffff1673ffffffffffffffffffffffffffffffffffffffff16815260200190815260200160002060009054906101000a900460ff1615610bc5576040517f08c379a0000000000000000000000000000000000000000000000000000000008152600401610bbc90612836565b60405180910390fd5b600060076000815480929190610bda90612885565b919050559050610bea33826118c1565b80600860003373ffffffffffffffffffffffffffffffffffffffff1673ffffffffffffffffffffffffffffffffffffffff168152602001908152602001600020819055506001600960003373ffffffffffffffffffffffffffffffffffffffff1673ffffffffffffffffffffffffffffffffffffffff16815260200190815260200160002060006101000a81548160ff0219169083151502179055507fe4c61638deb7572058067dab2c7b74b0e94eff134e3f6e5695c684c58806c1e9338242604051610cb9939291906128cd565b60405180910390a150565b610ccc611605565b6000600b60008373ffffffffffffffffffffffffffffffffffffffff1673ffffffffffffffffffffffffffffffffffffffff16815260200190815260200160002060006101000a81548160ff0219169083151502179055508073ffffffffffffffffffffffffffffffffffffffff167f6b1e68582d3997fbab6e418eb4b63f4eb7d07b97cfaf26413e3f3052b68c43d060405160405180910390a250565b610d72611605565b80600c60006101000a81548160ff0219169083151502179055507fc837540c869f4da60c2ca065a1c71ca0b090861f6c8ee2f6ad61e5f2b145626581604051610dbb9190612220565b60405180910390a150565b610dd1848484610793565b610de5610ddc6113d1565b858585856118df565b50505050565b600a6020528060005260406000206000915090505481565b6060610e0e8261130c565b506000610e19611a90565b90506000815111610e395760405180602001604052806000815250610e64565b80610e4384611aa7565b604051602001610e54929190612940565b6040516020818303038152906040525b915050919050565b6000600a60008373ffffffffffffffffffffffffffffffffffffffff1673ffffffffffffffffffffffffffffffffffffffff168152602001908152602001600020549050919050565b81600960008273ffffffffffffffffffffffffffffffffffffffff1673ffffffffffffffffffffffffffffffffffffffff16815260200190815260200160002060009054906101000a900460ff16610f42576040517f08c379a0000000000000000000000000000000000000000000000000000000008152600401610f39906129b0565b60405180910390fd5b610f4a610a4e565b73ffffffffffffffffffffffffffffffffffffffff163373ffffffffffffffffffffffffffffffffffffffff161480610fcc5750600b60003373ffffffffffffffffffffffffffffffffffffffff1673ffffffffffffffffffffffffffffffffffffffff16815260200190815260200160002060009054906101000a900460ff165b80610fe35750600c60009054906101000a900460ff165b611022576040517f08c379a000000000000000000000000000000000000000000000000000000000815260040161101990612a1c565b60405180910390fd5b6103e8821115611067576040517f08c379a000000000000000000000000000000000000000000000000000000000815260040161105e90612a88565b60405180910390fd5b6000600a60008573ffffffffffffffffffffffffffffffffffffffff1673ffffffffffffffffffffffffffffffffffffffff16815260200190815260200160002054905082600a60008673ffffffffffffffffffffffffffffffffffffffff1673ffffffffffffffffffffffffffffffffffffffff168152602001908152602001600020819055507f4e129cd592c4928775615d37d8f0f5a5e1257dec2f17b8b5fe34881b83b1cdc5848285426040516111249493929190612aa8565b60405180910390a150505050565b6000600960008373ffffffffffffffffffffffffffffffffffffffff1673ffffffffffffffffffffffffffffffffffffffff16815260200190815260200160002060009054906101000a900460ff169050919050565b6000600560008473ffffffffffffffffffffffffffffffffffffffff1673ffffffffffffffffffffffffffffffffffffffff16815260200190815260200160002060008373ffffffffffffffffffffffffffffffffffffffff1673ffffffffffffffffffffffffffffffffffffffff16815260200190815260200160002060009054906101000a900460ff16905092915050565b611224611605565b600073ffffffffffffffffffffffffffffffffffffffff168173ffffffffffffffffffffffffffffffffffffffff16036112965760006040517f1e4fbdf700000000000000000000000000000000000000000000000000000000815260040161128d91906123ea565b60405180910390fd5b61129f8161168c565b50565b60007f01ffc9a7000000000000000000000000000000000000000000000000000000007bffffffffffffffffffffffffffffffffffffffffffffffffffffffff1916827bffffffffffffffffffffffffffffffffffffffffffffffffffffffff1916149050919050565b60008061131883611b75565b9050600073ffffffffffffffffffffffffffffffffffffffff168173ffffffffffffffffffffffffffffffffffffffff160361138b57826040517f7e27328900000000000000000000000000000000000000000000000000000000815260040161138291906124a7565b60405180910390fd5b80915050919050565b60006004600083815260200190815260200160002060009054906101000a900473ffffffffffffffffffffffffffffffffffffffff169050919050565b600033905090565b6113e68383836001611bb2565b505050565b6000806113f784611b75565b9050600073ffffffffffffffffffffffffffffffffffffffff168373ffffffffffffffffffffffffffffffffffffffff161461143957611438818486611d77565b5b600073ffffffffffffffffffffffffffffffffffffffff168173ffffffffffffffffffffffffffffffffffffffff16146114ca5761147b600085600080611bb2565b6001600360008373ffffffffffffffffffffffffffffffffffffffff1673ffffffffffffffffffffffffffffffffffffffff168152602001908152602001600020600082825403925050819055505b600073ffffffffffffffffffffffffffffffffffffffff168573ffffffffffffffffffffffffffffffffffffffff161461154d576001600360008773ffffffffffffffffffffffffffffffffffffffff1673ffffffffffffffffffffffffffffffffffffffff168152602001908152602001600020600082825401925050819055505b846002600086815260200190815260200160002060006101000a81548173ffffffffffffffffffffffffffffffffffffffff021916908373ffffffffffffffffffffffffffffffffffffffff160217905550838573ffffffffffffffffffffffffffffffffffffffff168273ffffffffffffffffffffffffffffffffffffffff167fddf252ad1be2c89b69c2b068fc378daa952ba7f163c4a11628f55a4df523b3ef60405160405180910390a4809150509392505050565b61160d6113d1565b73ffffffffffffffffffffffffffffffffffffffff1661162b610a4e565b73ffffffffffffffffffffffffffffffffffffffff161461168a5761164e6113d1565b6040517f118cdaa700000000000000000000000000000000000000000000000000000000815260040161168191906123ea565b60405180910390fd5b565b6000600660009054906101000a900473ffffffffffffffffffffffffffffffffffffffff16905081600660006101000a81548173ffffffffffffffffffffffffffffffffffffffff021916908373ffffffffffffffffffffffffffffffffffffffff1602179055508173ffffffffffffffffffffffffffffffffffffffff168173ffffffffffffffffffffffffffffffffffffffff167f8be0079c531659141344cd1fd0a4f28419497f9722a3daafe3b4186f6b6457e060405160405180910390a35050565b600073ffffffffffffffffffffffffffffffffffffffff168273ffffffffffffffffffffffffffffffffffffffff16036117c357816040517f5b08ba180000000000000000000000000000000000000000000000000000000081526004016117ba91906123ea565b60405180910390fd5b80600560008573ffffffffffffffffffffffffffffffffffffffff1673ffffffffffffffffffffffffffffffffffffffff16815260200190815260200160002060008473ffffffffffffffffffffffffffffffffffffffff1673ffffffffffffffffffffffffffffffffffffffff16815260200190815260200160002060006101000a81548160ff0219169083151502179055508173ffffffffffffffffffffffffffffffffffffffff168373ffffffffffffffffffffffffffffffffffffffff167f17307eab39ab6107e8899845ad3d59bd9653f200f220920489ca2b5937696c31836040516118b49190612220565b60405180910390a3505050565b6118db828260405180602001604052806000815250611e3b565b5050565b60008373ffffffffffffffffffffffffffffffffffffffff163b1115611a89578273ffffffffffffffffffffffffffffffffffffffff1663150b7a02868685856040518563ffffffff1660e01b815260040161193e9493929190612b42565b6020604051808303816000875af192505050801561197a57506040513d601f19601f820116820180604052508101906119779190612ba3565b60015b6119fe573d80600081146119aa576040519150601f19603f3d011682016040523d82523d6000602084013e6119af565b606091505b5060008151036119f657836040517f64a0ae920000000000000000000000000000000000000000000000000000000081526004016119ed91906123ea565b60405180910390fd5b805160208201fd5b63150b7a0260e01b7bffffffffffffffffffffffffffffffffffffffffffffffffffffffff1916817bffffffffffffffffffffffffffffffffffffffffffffffffffffffff191614611a8757836040517f64a0ae92000000000000000000000000000000000000000000000000000000008152600401611a7e91906123ea565b60405180910390fd5b505b5050505050565b606060405180602001604052806000815250905090565b606060006001611ab684611e5f565b01905060008167ffffffffffffffff811115611ad557611ad4612565565b5b6040519080825280601f01601f191660200182016040528015611b075781602001600182028036833780820191505090505b509050600082602083010190505b600115611b6a578080600190039150507f3031323334353637383961626364656600000000000000000000000000000000600a86061a8153600a8581611b5e57611b5d612bd0565b5b04945060008503611b15575b819350505050919050565b60006002600083815260200190815260200160002060009054906101000a900473ffffffffffffffffffffffffffffffffffffffff169050919050565b8080611beb5750600073ffffffffffffffffffffffffffffffffffffffff168273ffffffffffffffffffffffffffffffffffffffff1614155b15611d1f576000611bfb8461130c565b9050600073ffffffffffffffffffffffffffffffffffffffff168373ffffffffffffffffffffffffffffffffffffffff1614158015611c6657508273ffffffffffffffffffffffffffffffffffffffff168173ffffffffffffffffffffffffffffffffffffffff1614155b8015611c795750611c778184611188565b155b15611cbb57826040517fa9fbf51f000000000000000000000000000000000000000000000000000000008152600401611cb291906123ea565b60405180910390fd5b8115611d1d57838573ffffffffffffffffffffffffffffffffffffffff168273ffffffffffffffffffffffffffffffffffffffff167f8c5be1e5ebec7d5bd14f71427d1e84f3dd0314c0f7b2291e5b200ac8c7c3b92560405160405180910390a45b505b836004600085815260200190815260200160002060006101000a81548173ffffffffffffffffffffffffffffffffffffffff021916908373ffffffffffffffffffffffffffffffffffffffff16021790555050505050565b611d82838383611fb2565b611e3657600073ffffffffffffffffffffffffffffffffffffffff168373ffffffffffffffffffffffffffffffffffffffff1603611df757806040517f7e273289000000000000000000000000000000000000000000000000000000008152600401611dee91906124a7565b60405180910390fd5b81816040517f177e802f000000000000000000000000000000000000000000000000000000008152600401611e2d929190612bff565b60405180910390fd5b505050565b611e458383612073565b611e5a611e506113d1565b60008585856118df565b505050565b600080600090507a184f03e93ff9f4daa797ed6e38ed64bf6a1f0100000000000000008310611ebd577a184f03e93ff9f4daa797ed6e38ed64bf6a1f0100000000000000008381611eb357611eb2612bd0565b5b0492506040810190505b6d04ee2d6d415b85acef81000000008310611efa576d04ee2d6d415b85acef81000000008381611ef057611eef612bd0565b5b0492506020810190505b662386f26fc100008310611f2957662386f26fc100008381611f1f57611f1e612bd0565b5b0492506010810190505b6305f5e1008310611f52576305f5e1008381611f4857611f47612bd0565b5b0492506008810190505b6127108310611f77576127108381611f6d57611f6c612bd0565b5b0492506004810190505b60648310611f9a5760648381611f9057611f8f612bd0565b5b0492506002810190505b600a8310611fa9576001810190505b80915050919050565b60008073ffffffffffffffffffffffffffffffffffffffff168373ffffffffffffffffffffffffffffffffffffffff161415801561206a57508273ffffffffffffffffffffffffffffffffffffffff168473ffffffffffffffffffffffffffffffffffffffff16148061202b575061202a8484611188565b5b8061206957508273ffffffffffffffffffffffffffffffffffffffff1661205183611394565b73ffffffffffffffffffffffffffffffffffffffff16145b5b90509392505050565b600073ffffffffffffffffffffffffffffffffffffffff168273ffffffffffffffffffffffffffffffffffffffff16036120e55760006040517f64a0ae920000000000000000000000000000000000000000000000000000000081526004016120dc91906123ea565b60405180910390fd5b60006120f3838360006113eb565b9050600073ffffffffffffffffffffffffffffffffffffffff168173ffffffffffffffffffffffffffffffffffffffff16146121675760006040517f73c6ac6e00000000000000000000000000000000000000000000000000000000815260040161215e91906123ea565b60405180910390fd5b505050565b6000604051905090565b600080fd5b600080fd5b60007fffffffff0000000000000000000000000000000000000000000000000000000082169050919050565b6121b581612180565b81146121c057600080fd5b50565b6000813590506121d2816121ac565b92915050565b6000602082840312156121ee576121ed612176565b5b60006121fc848285016121c3565b91505092915050565b60008115159050919050565b61221a81612205565b82525050565b60006020820190506122356000830184612211565b92915050565b600073ffffffffffffffffffffffffffffffffffffffff82169050919050565b60006122668261223b565b9050919050565b6122768161225b565b811461228157600080fd5b50565b6000813590506122938161226d565b92915050565b6000602082840312156122af576122ae612176565b5b60006122bd84828501612284565b91505092915050565b600081519050919050565b600082825260208201905092915050565b60005b838110156123005780820151818401526020810190506122e5565b60008484015250505050565b6000601f19601f8301169050919050565b6000612328826122c6565b61233281856122d1565b93506123428185602086016122e2565b61234b8161230c565b840191505092915050565b60006020820190508181036000830152612370818461231d565b905092915050565b6000819050919050565b61238b81612378565b811461239657600080fd5b50565b6000813590506123a881612382565b92915050565b6000602082840312156123c4576123c3612176565b5b60006123d284828501612399565b91505092915050565b6123e48161225b565b82525050565b60006020820190506123ff60008301846123db565b92915050565b6000806040838503121561241c5761241b612176565b5b600061242a85828601612284565b925050602061243b85828601612399565b9150509250929050565b60008060006060848603121561245e5761245d612176565b5b600061246c86828701612284565b935050602061247d86828701612284565b925050604061248e86828701612399565b9150509250925092565b6124a181612378565b82525050565b60006020820190506124bc6000830184612498565b92915050565b6124cb81612205565b81146124d657600080fd5b50565b6000813590506124e8816124c2565b92915050565b6000806040838503121561250557612504612176565b5b600061251385828601612284565b9250506020612524858286016124d9565b9150509250929050565b60006020828403121561254457612543612176565b5b6000612552848285016124d9565b91505092915050565b600080fd5b600080fd5b7f4e487b7100000000000000000000000000000000000000000000000000000000600052604160045260246000fd5b61259d8261230c565b810181811067ffffffffffffffff821117156125bc576125bb612565565b5b80604052505050565b60006125cf61216c565b90506125db8282612594565b919050565b600067ffffffffffffffff8211156125fb576125fa612565565b5b6126048261230c565b9050602081019050919050565b82818337600083830152505050565b600061263361262e846125e0565b6125c5565b90508281526020810184848401111561264f5761264e612560565b5b61265a848285612611565b509392505050565b600082601f8301126126775761267661255b565b5b8135612687848260208601612620565b91505092915050565b600080600080608085870312156126aa576126a9612176565b5b60006126b887828801612284565b94505060206126c987828801612284565b93505060406126da87828801612399565b925050606085013567ffffffffffffffff8111156126fb576126fa61217b565b5b61270787828801612662565b91505092959194509250565b6000806040838503121561272a57612729612176565b5b600061273885828601612284565b925050602061274985828601612284565b9150509250929050565b7f4e487b7100000000000000000000000000000000000000000000000000000000600052602260045260246000fd5b6000600282049050600182168061279a57607f821691505b6020821081036127ad576127ac612753565b5b50919050565b60006060820190506127c860008301866123db565b6127d56020830185612498565b6127e260408301846123db565b949350505050565b7f4964656e74697479206578697374730000000000000000000000000000000000600082015250565b6000612820600f836122d1565b915061282b826127ea565b602082019050919050565b6000602082019050818103600083015261284f81612813565b9050919050565b7f4e487b7100000000000000000000000000000000000000000000000000000000600052601160045260246000fd5b600061289082612378565b91507fffffffffffffffffffffffffffffffffffffffffffffffffffffffffffffffff82036128c2576128c1612856565b5b600182019050919050565b60006060820190506128e260008301866123db565b6128ef6020830185612498565b6128fc6040830184612498565b949350505050565b600081905092915050565b600061291a826122c6565b6129248185612904565b93506129348185602086016122e2565b80840191505092915050565b600061294c828561290f565b9150612958828461290f565b91508190509392505050565b7f4e6f206964656e74697479000000000000000000000000000000000000000000600082015250565b600061299a600b836122d1565b91506129a582612964565b602082019050919050565b600060208201905081810360008301526129c98161298d565b9050919050565b7f4e6f7420616c6c6f77656420746f2073636f7265207573657200000000000000600082015250565b6000612a066019836122d1565b9150612a11826129d0565b602082019050919050565b60006020820190508181036000830152612a35816129f9565b9050919050565b7f3c3d313030300000000000000000000000000000000000000000000000000000600082015250565b6000612a726006836122d1565b9150612a7d82612a3c565b602082019050919050565b60006020820190508181036000830152612aa181612a65565b9050919050565b6000608082019050612abd60008301876123db565b612aca6020830186612498565b612ad76040830185612498565b612ae46060830184612498565b95945050505050565b600081519050919050565b600082825260208201905092915050565b6000612b1482612aed565b612b1e8185612af8565b9350612b2e8185602086016122e2565b612b378161230c565b840191505092915050565b6000608082019050612b5760008301876123db565b612b6460208301866123db565b612b716040830185612498565b8181036060830152612b838184612b09565b905095945050505050565b600081519050612b9d816121ac565b92915050565b600060208284031215612bb957612bb8612176565b5b6000612bc784828501612b8e565b91505092915050565b7f4e487b7100000000000000000000000000000000000000000000000000000000600052601260045260246000fd5b6000604082019050612c1460008301856123db565b612c216020830184612498565b939250505056fea264697066735822122070e415e1dada7a4f6be540f366ad6f78123b22c5fa358c481cdbc6a0defa904664736f6c63430008140033",
  "linkReferences": {},
  "deployedLinkReferences": {}
}